:10000000F9C000001DC100001BC1000019C10000A3
:1000100017C1000015C1000013C1000011C100008C
:100020000FC100000DC100000BC1000009C100009C
:1000300007C1000005C1000003C1000001C10000AC
:10004000FFC00000FDC00000FBC00000F9C00000C0
:10005000F7C00000F5C00000F3C00000F1C00000D0
:10006000EFC00000EDC00000EBC00000E9C00000E0
:10007000E7C00000E5C00000E3C00000E1C00000F0
:10008000DFC00000DDC00000DBC00000D9C0000000
:10009000D7C00000D5C00000D3C00000D1C0000010
:1000A000CFC00000CDC00000CBC00000C9C0000020
:1000B000C7C00000C5C00000C3C00000C1C0000030
:1000C000BFC00000BDC00000BBC00000B9C0000040
:1000D000B7C00000B5C00000B3C00000B1C0000050
:1000E000AFC00000ADC00000ABC00000A9C0000060
:1000F000A7C00000A5C00000A3C00000A1C0000070
:100100009FC000009DC000000C94542199C00000C5
:1001100097C0000095C0000093C0000091C000008F
:100120000C9493218DC000008BC0000089C000009A
:1001300087C0000085C0000083C0000081C00000AF
:100140007FC000007DC000007BC0000079C00000BF
:1001500077C0000075C0000073C0000071C00000CF
:100160006FC000006DC000006BC0000069C00000DF
:1001700067C0000065C0000063C0000061C00000EF
:100180005FC000005DC000005BC0000059C00000FF
:1001900057C0000055C0000053C0000051C000000F
:1001A0004FC000004DC000004BC0000049C000001F
:1001B00047C0000045C0000043C0000041C000002F
:1001C0003FC000003DC000003BC0000039C000003F
:1001D00037C0000035C0000033C0000031C000004F
:1001E0002FC000002DC000002BC0000029C000005F
:1001F00027C0000011241FBEAFEFBFE3BEBFADBFDD
:10020000C2EAD0E0088117E0012B08831BBEE4E6B8
:10021000F2E500E00BBFA0E0B0E2C0E5D0E202C032
:1002200007900D92AC17BD07D9F700270BBFCAED99
:10023000D1E201C01D92AC17BD07E1F702D0FFCF9C
:10024000DFCE0F931F93DF93CF93CDB7DEB72F97FA
:10025000CDBFDEBF78940E9482260E94AD2681E049
:100260008093860684EC91E28093C4219093C5210B
:100270008093C6219093C7210E9438260E9436227F
:100280000E94C71780E090E00E9462130E942F0C2A
:100290007FD38C0180D3DE011196FC018FE00190A9
:1002A0000D928150E1F719861A86C801BE016F5F71
:1002B0007F4F44E00E94220BC8010E94A10A1092C5
:1002C00052201092532080E693E080935020909328
:1002D000512080E590E266D004EC11E2F894209180
:1002E000BF21222349F1822F90E08F709070892BDB
:1002F00019F0322F40E004C0322F32953F7044E0B5
:10030000832F90E083709070892B19F44E5F36959F
:10031000369530FF11C0442379F42E7F2093BF21FE
:100320007894E091C021F091C1218091C2219091F7
:10033000C3211995F894D3CFE091C421F091C52140
:1003400081E2E43CF80701F1808191818093C4212E
:100350009093C5218091C6219091C7218E179F0748
:1003600021F40093C6211093C721DF011297129642
:100370001D921C921397109739F07894ED91FC918F
:100380001197CD011995AACF7894A8CFE091542068
:10039000F0915520FC96DC0189E00D90019281508E
:1003A000E1F70895CF92DF92EF92FF920F931F93A0
:1003B0006C0186E490E00E94321380935420909365
:1003C0005520F6E5EF2EF0E2FF2EC7016DE070E25A
:1003D0004AE050E00E94EC1282E080935D200091A0
:1003E0005420109155200E946922F80182A393A302
:1003F00086EC91E00E9461220E9424178C010E94E9
:1004000029179C0180E090E060E070E0A8010E9464
:10041000B1160E9424178C010E9429179C0180E0CC
:1004200090E060E070E0A80100E01FE10E94F61992
:100430008EE09FE46AE070E040E550E097010FEF46
:100440001FEFE8EFEE2EF12C0E94DC1D00915420EE
:10045000109155200E942417C397F80184A395A3F7
:1004600000915420109155200E942917C397F8013C
:1004700086A397A3E0905420F090552002E310E06B
:10048000F70104A715A70E942917C397F70186A7AC
:1004900097A7E0915420F091552004AB15AB06AB23
:1004A00017AB66A177A184A195A145E050E02FEF9D
:1004B0003FEF0FEF0E94F518E0915420F091552086
:1004C000EB5BFF4F1082E554F040C482D58212826C
:1004D000138289E792E08083918384EC91E2BF01EB
:1004E0000E946D141F910F91FF90EF90DF90CF90BD
:1004F00008950F931F93CF93DF93EC018C010B5B57
:100500001F4FD8018C91833020F0833009F0D3C085
:10051000A5C084EC91E2BE010E946D148CAD8330C5
:1005200009F0C9C01CAED801EC91F0E0359653E05B
:10053000EE0FFF1F5A95E1F7EC0FFD1FCF5BDF4F6A
:1005400088819981C154D04080839183EC91F0E0FF
:1005500043E0EE0FFF1F4A95E1F7EC0FFD1FCD5B67
:10056000DF4F88819981C354D04082A793A78C9193
:10057000482F50E0CA010197DA01149633E0AA0F20
:10058000BB1F3A95E1F7AC0FBD1FFA01359623E08A
:10059000EE0FFF1F2A95E1F7EC0FFD1F0D90BC91A8
:1005A000A02D2081318103E0880F991F0A95E1F782
:1005B0008C0F9D1FFC0162A573A5FA0113E0EE0FDD
:1005C000FF1F1A95E1F7EC0FFD1F82A593A5A21B53
:1005D000B30BB7FF03C0B095A195BF4FA45FB14067
:1005E0006CF49B01281B390BC90137FF03C09095A0
:1005F00081959F4F845F91400CF45DC0FA01B3E098
:10060000EE0FFF1FBA95E1F7EC0FFD1F66A177A172
:1006100084A195A145E050E020E03FE10FEF0E946A
:10062000F518FE01EB5BFF4F80818F5F8083833085
:1006300008F041C0E82FF0E0A3E0EE0FFF1FAA95FD
:10064000E1F7EC0FFD1F66A177A184A195A145E01C
:1006500050E02FEF3FEF0E94F5182DC06EA97FA943
:100660008CA99DA945E050E020E03FE10FEF0E94FA
:10067000F5188E010A5F1F4FCE018496B8010E94C3
:100680007722C8010E946E228AA19BA10E9461224A
:1006900080915420909155200E941013E091542095
:1006A000F0915520648175816115710521F084EC0C
:1006B00091E20E946D14DF91CF911F910F910895E7
:1006C0002F923F924F925F926F927F928F929F9262
:1006D000AF92BF92CF92EF92FF920F931F93DF934F
:1006E000CF93CDB7DEB72897CDBFDEBF62E0C62E71
:1006F000C09214204DD18C0110926A205AE4252E0C
:1007000059E6352E20926B2030926C2019821A8285
:100710001B821C820E9424178D839E830E942917AE
:100720008F839887C8012E010894411C511CB20187
:1007300046E650E220E030E006EA14E0EE24FF2432
:100740000E947F0C8093602090936120009709F4B1
:10075000FCC00E947B0C3C01F4D686E090E08983CB
:100760009A838B839C830091002010910120CE01FD
:100770000596B8010E94090EC301B201A80120E04C
:100780000E943D0D009709F4DAC00E94390DD9D6B8
:1007900085E090E089839A8349E1A42EB12CAB8255
:1007A000BC82AD82BE8284EB90E08F839887C301C8
:1007B000B20140EF28E706E031E0E32EF12C0E9481
:1007C000200E8093622090936320009709F4B7C0B5
:1007D0000E94120EB6D68CE390E089839A838DEC4A
:1007E00090E08B839C838FEF90E08D839E83AF821C
:1007F000B886C301B20140EF28E702E012E0E12E23
:10080000F12C0E94200E8093642090936520009725
:1008100009F495C00E94120E94D682E390E0898379
:100820009A8388E290E08B839C8386E990E08D83B5
:100830009E838F839887109275208FEF9FEF809310
:1008400076209093772000D0EDB7FEB721823282D8
:10085000C382C301B20141E750E220EF08E7BAE5E5
:10086000EB2EAEE1CA2EF8EFAF2EB12CE3E68E2EC2
:10087000ECE29E2E0E94FB0F80937A2090937B20C7
:100880000F900F900F90009709F459C00E94F70F36
:1008900058D682ED90E089839A8380E590E08B833F
:1008A0009C8384E690E08D839E838F83988700D01D
:1008B000EDB7FEB7218232821382C301B20140E05C
:1008C00050E020EF34E6E32ECC240E94FB0F80930F
:1008D0007C2090937D200F900F900F90009779F1DE
:1008E0000E94F70F2ED689819A812D813E81820F39
:1008F000931F0A9689839A8382E390E08D839E8377
:1009000084E190E08F83988780916F209091702090
:10091000F2D717D62896CDBFDEBFCF91DF911F91BA
:100920000F91FF90EF90CF90BF90AF909F908F90DE
:100930007F906F905F904F903F902F90089580919F
:10094000602090916120D7D74DD7FFCF0F931F9391
:10095000613019F06230C1F409C000917A20109121
:100960007B20809162209091632008C000917C20C0
:1009700010917D2080916420909165200E94160E38
:10098000682FC8010E94C21280E01F910F91089544
:1009900087E890E2089508950895FC01858596857D
:1009A000089580938B2190938C210895FC01DB01A5
:1009B000208131816D917C91119762177307ECF062
:1009C0004281538112960D90BC91A02DA417B507BA
:1009D000A4F084819581280F391F621773076CF486
:1009E00020E086819781480F591FA417B5070CF0A6
:1009F00021E081E02827822F089580E090E008958B
:100A0000FC01DB01208131818D919C911197A9011D
:100A1000481B590B1416150654F4241B350B208360
:100A2000318384819581840F951F848395832281EE
:100A3000338112968D919C911397A901481B590BF4
:100A40001416150654F4241B350B22833383868138
:100A50009781840F951F86839783448155811496CF
:100A60002D913C9115978D919C911197280F391FCD
:100A7000241B350B80819181281B390B121613061C
:100A800024F4240F351F248335834681578116961D
:100A90002D913C91179712968D919C911397280F49
:100AA000391F241B350B82819381281B390B1216A9
:100AB000130624F4240F351F2683378308950F93DC
:100AC0001F93CF93DF93DC01FB016081718124814F
:100AD0003581C281D3810681178118968D919C91B1
:100AE0001997861797070CF44AC01A968D919C9116
:100AF0001B978C179D070CF442C0AB01420F531F8C
:100B0000415050401496ED91FC9115974E175F0798
:100B1000B4F19E01200F311F2150304016968D9167
:100B20009C9117972817390754F1E617F70724F413
:100B300014966D937C93159716968D919C911797AB
:100B40008C179D0724F41696CD93DC93179718966F
:100B50008D919C9119974817590724F418964D9335
:100B60005C9319971A968D919C911B9728173907BA
:100B700024F41A962D933C931B9781E001C080E0EA
:100B8000DF91CF911F910F910895EF92FF920F93F4
:100B90001F93CF93DF938C01EA01FC018081918147
:100BA000A281B38188839983AA83BB838081918149
:100BB000A281B3818C839D83AE83BF838081918129
:100BC00024813581820F931F0197888799878281BD
:100BD000938126813781820F931F01978A879B8794
:100BE000CA016DDF882309F05FC065C0F801078581
:100BF00010898C819D8197FF02C01C821D828E818D
:100C00009F8197FF02C01E821F82F80124813581D7
:100C1000888599858217930724F0215030402887D2
:100C20003987F801268137818A859B85821793074A
:100C300024F0215030402A873B874C815D816885B4
:100C4000798564177507BCF1EE80FF80AA85BB85A6
:100C5000AE15BF0584F188819981F8012081318129
:100C6000820F931F8883998380819181480F591F38
:100C70004C835D8380819181680F791F68877987B4
:100C80008A819B8122813381820F931F8A839B8378
:100C900082819381E80EF91EEE82FF828281938128
:100CA000A80FB91FAA87BB87F0E207381F0709F012
:100CB0009DCF81E001C080E0DF91CF911F910F9126
:100CC000FF90EF900895FC01DB01808191818D936D
:100CD0009C9311978281938112C08D919C91119761
:100CE00020813181820F931F8D939C9311971296CF
:100CF0008D919C91139722813381820F931F1296BD
:100D00008D939C9313970784F089E02D309729F7F2
:100D10000895CF93DF93EC012B893C89EF85F88907
:100D20002817390719F4158A168A13C085899689F8
:100D30008C179D0711F4258B368BEB89FC898989EB
:100D40009A89818B928BA989BA895396ED93FC93EA
:100D500054971F86188A1B8A1C8A198A1A8ADF915F
:100D6000CF910895CF93DF93EC01DB01ED89FE89EC
:100D7000309749F453966D937C93549751966D93A5
:100D80007C93529712C05396ED93FC9354978189AC
:100D9000928951968D939C935297618B728B519649
:100DA000ED91FC915297638B748BAD8BBE8B1F962C
:100DB000CD93DC935097DF91CF910895DC011A9683
:100DC000ED91FC911B97309711F480E008951995EF
:100DD00008950F931F93CF93DF93182F092F84EC5F
:100DE00091E263EA70E20E946D144FB7F89420918B
:100DF0009F203091A0208091A1209091A220B90144
:100E0000681B790B60317105A1F480918721909165
:100E10008821A0918921B0918A210196A11DB11D3F
:100E20008093872190938821A0938921B0938A2170
:100E300024C0C9018F709070880F991FFC0123E0B6
:100E4000EE0FFF1F2A95E1F7E81BF90BE955FF4D5F
:100E5000EF01212F302FC901DC018EE00D900992A6
:100E60008150E1F71082118280919F209091A02003
:100E7000019680939F209093A0204FBFDF91CF9148
:100E80001F910F910895DF93CF93CDB7DEB72E97C3
:100E9000CDBFDEBF22E02B83DE011496FC0186E08D
:100EA00001900D928150E1F7CE01019692DF2E96CE
:100EB000CDBFDEBFCF91DF910895DF93CF93CDB744
:100EC000DEB72E97CDBFDEBF1B82DE011496FC017C
:100ED0008BE001900D928150E1F7CE01019679DF10
:100EE0002E96CDBFDEBFCF91DF910895DF93CF93D4
:100EF000CDB7DEB72B97CDBFDEBFFC0121E02A873F
:100F00008181928189839A83838194818B839C835D
:100F1000E081E23031F0E33031F0E13031F41B8632
:100F200004C02B8702C082E08B871D82CE01019610
:100F3000C4DF2B96CDBFDEBFCF91DF9108958F9296
:100F40009F92AF92BF92CF92DF92EF92FF920F9358
:100F50001F93CF93DF934C015B01FB016681778187
:100F60004085518522853385848195810E94B11603
:100F7000F40180859185009779F0F5016481758190
:100F8000468157812085318502851385E080F18077
:100F9000C280D3800E949D20C40167E0A5010EDFBE
:100FA000F401C589D689209779F00988DA89C02D9E
:100FB0008F89882319F0CE01B50113D0F4018589FA
:100FC0009689C817D90789F7DF91CF911F910F91A3
:100FD000FF90EF90DF90CF90BF90AF909F908F9059
:100FE0000895EF92FF920F931F93DF93CF93CDB7A6
:100FF000DEB72C97CDBFDEBF7C018B01FC01808169
:101000009181A281B3819C0189839A83AB83BC8344
:101010008D839E83AF83B887608171818481958140
:10102000680F791F615070400280F381E02DD70175
:1010300016968D919C911797E80FF91F3197D8015B
:101040008D919C911197280F391F29833A83A9010B
:101050002D833E83680F791F69877A878B819C81F6
:1010600012962D913C911397820F931F8B839C8333
:101070008F819885820F931F8F839887E20FF31FCC
:10108000EB87FC8714962D913C91159742175307D7
:1010900014F42D833E83D80116962D913C91179719
:1010A0008217930714F42F833887D80118968D91EF
:1010B0009C9119978617970714F489879A87D80106
:1010C0001A966D917C911B976E177F0714F46B87AE
:1010D0007C872D813E8189859A858217930764F0EC
:1010E0002F8138858B859C85821793072CF0C7014B
:1010F000BE016F5F7F4F23DF2C96CDBFDEBFCF9148
:10110000DF911F910F91FF90EF900895EF92FF9262
:101110000F931F93DF93CF93CDB7DEB72C97CDBF3F
:10112000DEBF8C017B01AE014F5F5F4F2EDD882358
:1011300009F444C0D8011F968D919C915097892B3A
:1011400041F01C968C9181FF04C0C801B70140D0CA
:1011500035C0C8017E010894E11CF11CB701EFDE27
:1011600029C089819A81F80120813181821B930BEA
:1011700089839A838B819C8122813381821B930B8B
:101180008B839C830CC0D80151960D911C91529772
:10119000F8018789882319F0C801B70122DFD80137
:1011A0001F96ED91FC91509785899689081719072C
:1011B00051F78F01B0E207381B0799F62C96CDBF87
:1011C000DEBFCF91DF911F910F91FF90EF900895B7
:1011D000DF93CF93CDB7DEB72897CDBFDEBFAC018D
:1011E000DE011196FB0188E001900D928150E1F73C
:1011F000DA011F96ED91FC91509729813A8137FFD2
:1012000008C08D819E81820F931F8D839E831982DA
:101210001A822B813C8137FF08C08F819885820F0D
:10122000931F8F8398871B821C8269817A81248116
:1012300035818D819E81860F971F2817390724F4E9
:10124000261B370B2D833E834B815C8126813781A2
:101250008F819885840F951F2817390724F4241B44
:10126000350B2F8338878D819E8118161906B4F4AB
:101270008F819885181619068CF480819181860FCC
:10128000971F89839A8382819381840F951F8B8313
:101290009C83CF01BE016F5F7F4F38DF2896CDBFA3
:1012A000DEBFCF91DF9108950F931F93CF93DF930C
:1012B000EC01EF85F889858996898C179D07F1F0F7
:1012C0008D899E8964E040E050E078DD0F851889C3
:1012D000CE011FDDC801BE0145DDCE0163E040E067
:1012E00050E06CDDFE018789882341F00784F08996
:1012F000E02D3097C1F7CE01BE0108DFDF91CF911D
:101300001F910F9108958F929F92AF92BF92CF92AB
:10131000DF92EF92FF920F931F93DF93CF9300D052
:101320000F92CDB7DEB76C015B01FA01DC01559677
:10133000ED90FC905697E114F10409F442C08081CD
:101340009181A281B3819C0189839A83AB83BC8301
:10135000F60180819181281B390B29833A838B8187
:101360009C8122813381821B930B8B839C83870119
:101370004E010894811C911CD80157968C918823AA
:10138000D1F0C801B40112DB8823A9F0F5018285F0
:10139000882339F4D8011C968C9180FF02C0C801C3
:1013A00083DFC801B501AE014F5F5F4FACDF88231B
:1013B00041F081E00AC0F801038914890E151F0568
:1013C000D9F6C60160E0A501F9DC2496CDBFDEBFE9
:1013D000CF91DF911F910F91FF90EF90DF90CF9011
:1013E000BF90AF909F908F9008950F931F93CF93CE
:1013F000DF9387C0C9018F709070880F991FEC012F
:1014000043E0CC0FDD1F4A95E1F7C81BD90BC95546
:10141000DF4D8A81813009F449C0813020F082306B
:1014200009F066C056C0AE014D5F5F4F80918F21BD
:1014300090919021A0919121B091922188879987D4
:10144000AA87BB878F818823A9F08B819C812091FB
:101450008F2130919021820F931F8B839C838D81EC
:101460009E812091912130919221820F931F8D8333
:101470009E831F828B819C81AD81BE8180938F2151
:1014800090939021A0939121B093922180918B21F0
:1014900090918C21009719F060E090DC29C087E8DA
:1014A00090E2BA014FE851E22EDF22C08E010D5FBB
:1014B0001F4FC0918D21D0918E212097C9F0CE0170
:1014C00061E0A8017BDC882399F40F84D889C02DC2
:1014D000F4CF0D811E814F815885C80162E06EDC1A
:1014E000882331F4F801078510890115110599F752
:1014F0008091A1209091A22001968093A1209093A9
:10150000A2202091A1203091A22080919F20909133
:10151000A0208217930709F06DCFDF91CF911F9123
:101520000F91089562CF0895BC01FC01878988233B
:1015300039F00784F089E02D3097C1F7CB01E6CD73
:101540000895FC018789882321F481E0878BCF01EE
:10155000EBCF0895DF92EF92FF920F931F93DF93EB
:10156000CF93CDB7DEB72997CDBFDEBF8C017B010E
:101570004987DE011196FC0188E001900D928150AF
:10158000E1F7898580FD02C0DD2410C0F70180816C
:101590009181A281B381F80180839183A283B38377
:1015A000CE010196B7012CDADD24D394898581FF21
:1015B00022C0F70124813581F801848195812817A3
:1015C00039074CF0F70126813781F8018681978130
:1015D0002817390714F4DD24D394F7018481958109
:1015E000A681B781F80184839583A683B783CE0152
:1015F0000196B70105DAC80168E0AE01475F5F4FA9
:10160000DDDBF8018789882391F00784F089E02DDC
:101610003097C1F706C0C801DBDD09C0C80176DD1F
:1016200006C0BE016F5F7F4FDD20C1F3F4CF299666
:10163000CDBFDEBFCF91DF911F910F91FF90EF9053
:10164000DF900895FF920F931F93DF93CF93CDB751
:10165000DEB72997CDBFDEBF8C01FB0149879E0114
:101660002F5F3F4FAC0188E0DA010D90AD01D90149
:101670000D929D018150C1F74985242F30E042FD34
:1016800002C0FF2409C080859185D80118968D93EA
:101690009C931997FF24F39423FF07C082859385B9
:1016A000D8011A968D939C931B9724FF04C08485C0
:1016B000D8011C968C9325FF07C085859685D80197
:1016C0001D968D939C931E9723703070232B21F0D1
:1016D000C801BF013FDF16C0C80168E0AE01475F27
:1016E0005F4F6CDBFF2071F0F8018789882351F090
:1016F0000784F089E02D3097C1F7C801BE016F5F04
:101700007F4F04DD2996CDBFDEBFCF91DF911F91C2
:101710000F91FF9008950F931F93FC0187898823F1
:10172000A9F180E2E738F807F1F4178A0E9424173C
:101730008C010E9429179C0180E090E060E070E03D
:10174000A8010E94B1160E9424178C010E9429173B
:101750009C0180E090E060E070E0A80100E010E013
:101760000E94F61913C0DF0157968C915797882372
:1017700039F01F960D90BC91A02D1097A9F702C0CB
:10178000178A04C0178ACF01BF0122DD1F910F9174
:101790000895EF92FF920F931F93CF93DF937C01F5
:1017A000FC01C589D6892097B1F0CE01F2DFCE01C8
:1017B00069E040E050E002DB1B890C89CE0130D7A4
:1017C000812F902FEC01F70185899689C817D907D9
:1017D00061F7158A168ADF91CF911F910F91FF90C3
:1017E000EF900895CF93DF93EC018F89882311F058
:1017F000CE0191DFCE018DDACE01CBDFCE0169E0E3
:1018000040E050E0DBDACE010BD7DF91CF910895B5
:10181000EF92FF920F931F93CF93DF937C01162FCC
:10182000072F88E190E01ED7EC01009781F0DC01E2
:10183000812F902F9C01F9018FE001900D92815032
:10184000E1F71F8A1D8A1E8AC701BE018BDACE010D
:10185000DF91CF911F910F91FF90EF9008950E941B
:10186000241780938B2090938C200E9429178093BB
:101870008D2090938E208EE790E280938F2090931E
:1018800090201092A5201092A62082E99AE08093E1
:10189000A3209093A42087E890E280938D219093D9
:1018A0008E210E94241762E070E00E943727609327
:1018B0008F21709390210E94291762E070E00E94AE
:1018C0003727609391217093922186E797E00C94DB
:1018D0006122489FC001112470E00E942327862FB7
:1018E0000895DC01FB0102C08D933196808188232D
:1018F000D9F71C920895FC018081918108952F925F
:101900003F924F925F926F927F928F929F92AF928F
:10191000BF92CF92DF92EF92FF920F931F93DF93CC
:10192000CF93CDB7DEB72F97CDBFDEBF1C01562EAC
:10193000472E3A0149016801570188E090E092D6AC
:101940008C017C01009789F1FC01C282D382A482C0
:10195000B58286829782DE011196852D942D9C0199
:10196000F90188E001900D928150E1F76114710452
:1019700021F069867A861D8604C019861A8682E05F
:101980008D870E871F878CEE9CE08B879C87C1011B
:10199000BE016F5F7F4F3CDFF80180839183892B0D
:1019A00021F4C8013DD6EE24FF24C7012F96CDBFF8
:1019B000DEBFCF91DF911F910F91FF90EF90DF90ED
:1019C000CF90BF90AF909F908F907F906F905F90DF
:1019D0004F903F902F900895CF92DF92FF920F93F8
:1019E0001F93CF93DF938C01F62E6A010E94CD04E2
:1019F000EC0182E0F81609F18F1518F0FF2071F163
:101A00002FC087E0F81621F089E0F81649F50DC0DF
:101A1000888199810817190709F5EE81FF813097B0
:101A2000E9F0C801B601199519C088819981081794
:101A30001907A1F4CE01F4D511C088819981081746
:101A4000190771F4EA81FB81309751F0CE01B6019C
:101A50001995882319F088819981C4DE81E001C03D
:101A600080E0DF91CF911F910F91FF90DF90CF9099
:101A70000895FC018081918108957F928F929F92B9
:101A8000AF92BF92CF92DF92EF92FF920F931F938C
:101A9000DF93CF93CDB7DEB72F97CDBFDEBF4C011D
:101AA000A62E772E6A01B22E85E090E0DBD58C0160
:101AB0007C01009799F1FC01B482C601A6D501967C
:101AC000D1D5F80182839383009721F1B60109DF14
:101AD00080EA9DE08B879C870E871F87DE01119629
:101AE0002A2D372DC901FC0188E001900D9281500B
:101AF000E1F719861A8682E08D87C401BE016F5F07
:101B00007F4F86DEF80180839183892B39F48281AF
:101B1000938186D5C80184D5EE24FF24C7012F9672
:101B2000CDBFDEBFCF91DF911F910F91FF90EF905E
:101B3000DF90CF90BF90AF909F908F907F9008954F
:101B4000AF92BF92CF92DF92EF92FF920F931F93CB
:101B5000DF93CF9300D00F92CDB7DEB76C01162F75
:101B6000B42EA52E0E94CD047C01173021F019302F
:101B7000D9F180E040C00B2D1A2DC6010E94CC0483
:101B80006C01F701848122813381882339F4F801C3
:101B90006081718142815381C9011CC0C9016DE01E
:101BA00070E2AE014F5F5F4F9E012D5F3F4F0E947D
:101BB000511CF60164817581F80180819181680F63
:101BC000791F89819A81681B790B42815381F701C2
:101BD000828193812DE030E20FEF1FEFE8EFEE2ED0
:101BE000F12C0E94451E06C0FC018281938118D50C
:101BF000C70116D581E02496CDBFDEBFCF91DF911E
:101C00001F910F91FF90EF90DF90CF90BF90AF901A
:101C100008959C01CB016DE070E2A9012E5F3F4F5A
:101C20000C94511CFC01808191810895FC018285F6
:101C3000908583FF03C08781891B0895892F0895AC
:101C40005F926F927F928F929F92AF92BF92CF924C
:101C5000DF92EF92FF920F931F93DF93CF93CDB755
:101C6000DEB72F97CDBFDEBF3C01862E572E942EB8
:101C7000D22EC02E57018DE090E0F4D48C017C016F
:101C8000009709F448C0FC0116829782D086C2866C
:101C90004C2D50E0C3FE03C0F92DFD19DF2EF801D5
:101CA000D086CA0183709070892B11F0A386B48608
:101CB0008FE99EE08B879C870E871F87DE01119638
:101CC000282D352DC901FC0188E001900D9281502D
:101CD000E1F742FF02C04F8101C04D814A508D2D76
:101CE000692DF7DDF801818719861A861D86C301E3
:101CF000BE016F5F7F4F8CDDF80180839183009779
:101D000031F00E5F1F4FB8010E94630604C0C80186
:101D100087D4EE24FF24C7012F96CDBFDEBFCF911D
:101D2000DF911F910F91FF90EF90DF90CF90BF90C8
:101D3000AF909F908F907F906F905F9008957F926B
:101D40008F929F92AF92BF92CF92DF92EF92FF92CB
:101D50000F931F93DF93CF9300D000D0CDB7DEB7A2
:101D60005C01162F942E852E0E94CD046C01173035
:101D700041F0193009F428C1112309F498C080E01A
:101D800025C1E92CF82CC5010E94CC045C01D601C8
:101D90001A967C901A9716968C91882321F08824A5
:101DA0008A94982C04C08EEF882E80EA982EF70132
:101DB00062817381D50114964D915C9115971696A9
:101DC0002D913C9117978081918100E010E00E9455
:101DD000921BF70180819181628173816F5F7F4FD8
:101DE000D50114964D915C9115974250504016962E
:101DF0002D913C91179722503040019604E810E154
:101E00000E94F619F7018081918162817381D60168
:101E100019964C9172FE24C0640F711DF501448126
:101E200055812AE030E000E010E00E94921BD701CB
:101E30008D919C91119712966D917C9113976F5F84
:101E40007F4FF6012185620F711DD50114964D91CA
:101E50005C91159742505040019628E030E023C035
:101E6000F50126813781840F911D4AE050E000E0A2
:101E700010E00E94921BD7018D919C9111970196C1
:101E8000F601418512966D917C9113976F5F7F4F9C
:101E9000D50116962D913C91179722503040840F12
:101EA000911D48E050E084010E94F6198EC0092D72
:101EB000182DC5010E94CC04FC01D6011A96FC9095
:101EC0001A9714966D917C91159712964D915C918D
:101ED0001397D8011A968C91813099F0813020F0B7
:101EE000823009F072C04DC0F6018681882309F066
:101EF0006CC081E08683C5010E94D104C50114DB5A
:101F000064C0D60116968C91813009F05EC0F2FE55
:101F10000AC0D80112962D913C911397261B370BBE
:101F20004681578107C0D8012D913C91241B350B68
:101F300044815581255030408A010A50104037FFB6
:101F400002C090E00DC0021713071CF4F601978140
:101F500007C0822F602FD60117964C91BADC982FBC
:101F6000F6018085891789F19087892F6781402F35
:101F7000B0DCD60119968C93C501D6DAF0FC0EC000
:101F800024C0F6018681813001F5168280E090E060
:101F90000E94D104C501C8DAF1FE17C0D6018D91A7
:101FA0009C91119789839A838D919C9111978B8332
:101FB0009C831B968D919C911C978D839E83CE0153
:101FC00001960E94430701C02BD381E02696CDBF26
:101FD000DEBFCF91DF911F910F91FF90EF90DF90C7
:101FE000CF90BF90AF909F908F907F900895FC010D
:101FF0008081918108952F923F924F925F926F92CC
:102000007F928F929F92AF92BF92CF92DF92EF9288
:10201000FF920F931F93DF93CF93CDB7DEB76297F5
:10202000CDBFDEBF888B998B3B011A01522ED02E7B
:102030004E2CCA8ACAA487E190E014D38C017C019B
:10204000009709F45FC0FC015282D382C58281E00F
:102050008487A682B7828086918688A599A5828783
:102060009387C1FE03C0F52DFD19DF2E89E492E1AF
:102070008B879C870E871F87DE011196F30188E00E
:1020800001900D928150E1F7BD80942D953608F0B6
:1020900094E6F3014481425084E6891B64E619DC2E
:1020A000F801858B8A89853608F084E6F30144813E
:1020B000425064E60EDCF801868BFEEFBF0E8D2DDC
:1020C000652D4B2D06DCF8018483232831F0198619
:1020D0001A861D8681E0858706C019861A8682E0E9
:1020E0008D87F801158688899989BE016F5F7F4FBA
:1020F0008FDBF80180839183892B21F4C80190D272
:10210000EE24FF24C7016296CDBFDEBFCF91DF91E1
:102110001F910F91FF90EF90DF90CF90BF90AF9005
:102120009F908F907F906F905F904F903F902F90F7
:102130000895CF92DF92EF92FF920F931F93CF9368
:10214000DF937B016A01E901813009F48BC08130A2
:1021500020F0823009F094C10DC1FB01A081B18152
:10216000FA0126813781FB0182819381280F391F73
:102170002350304049898D8990E0840F911D4A8910
:10218000B901641B7109F601448155814A0F5B1F37
:1021900043505040EB894E0F511DEE894E1B5109A3
:1021A000EC892E1B3109088519858A0F9B1F0E9417
:1021B000C51BF70140815181F60126813781F70166
:1021C00082819381280F391F23503040CA01019624
:1021D0006989860F911DAD896A89F901E61BF109AC
:1021E000BF01F60104811581400F511F425050403C
:1021F000EB894E0F511DEE894E1B5109EC892E1BA8
:102200003109088519858A0F911D0E94C51BF701A8
:10221000A081B181F60126813781F7018281938106
:10222000280F391F2250304049898D8990E0840F52
:10223000911D4A89B901641B7109F60144815581D8
:102240004A0F5B1F43505040EB894E0F511DEE89E2
:102250004E1B5109EC892E1B3109088519858A0FFF
:102260009B1F0CC1FB0162817381FA01448155817E
:1022700026813781F7018081918100E010E00E9482
:10228000921BF70162817381F601448155814250AE
:1022900050402681378122503040F7018081918162
:1022A0000AE419E60E94F619F60144815581F70106
:1022B00080819181840F951F62817381F60126814F
:1022C0003781620F731F6250704042505040029736
:1022D00020E030E00CE089D7F60144815581F70118
:1022E00080819181840F951F62817381F60126811F
:1022F0003781620F731F62507040435050402885F1
:10230000398502970E949B1AF70180819181F6011D
:1023100024813581820F931FF70162817381F60159
:1023200026813781620F731F625070404E8950E0E2
:1023300042505040029724E932EB0E949B1AF70169
:1023400080819181F60124813581820F931FF701ED
:1023500062817381F60126813781620F731F62509B
:1023600070404E8950E042505040029720E030E0EB
:102370003CD786C0FB01A081B181FA01268137815B
:10238000FB0182819381280F391F235030404989F6
:102390008D8990E0840F911D4A89B901641B7109F0
:1023A000F601448155814A0F5B1F43505040EB8931
:1023B0004E0F511DEE894E1B5109EC892E1B310920
:1023C0008A0F9B1F08EC10E00E94C51BF70140819B
:1023D0005181F60126813781F70182819381280F8F
:1023E000391F23503040CA0101966989860F911D1B
:1023F000AD896A89F901E61BF109BF01F601048183
:102400001581400F511F42505040EB894E0F511D16
:10241000EE894E1B5109EC892E1B31090E811F815B
:102420008A0F911D0E94C51BF701A081B181F601A1
:1024300026813781F70182819381280F391F22502D
:10244000304049898D8990E0840F911D4A89B901F6
:10245000641B7109F601448155814A0F5B1F43508B
:102460005040EB894E0F511DEE894E1B5109EC89EE
:102470002E1B31098A0F9B1F08EA10E00E94C51B22
:10248000DF91CF911F910F91FF90EF90DF90CF9050
:102490000895DF92EF92FF920F931F93CF93DF93F4
:1024A0008C01F62EE42ED52E0E94CD04EC0187E09F
:1024B000F81631F0E9E0FE1609F459C080E05AC080
:1024C000C8010E94CC048C01FC808C85882349F4CF
:1024D0008D85882331F080E06E2D7D2DA8019E0131
:1024E00028DE8C85882351F08D85882339F081E0A2
:1024F0006E2D7D2DA8019E011CDE1C86F8016481D5
:1025000062508F2D4FE7E5D98E87282F30E082E685
:1025100092E5821B930BFC01949190959F872D511E
:102520003E4AF9018491888BF80144818D89481BCA
:102530004350892F6FEFCDD9898BF80146818D8962
:10254000481B435088896FEFC4D98A8B8F856FEF02
:102550004E89BFD98B8B88896FEF4E89BAD98C8B06
:1025600082E06E2D7D2DA8019E01E3DD02C0CE012B
:1025700057D081E0DF91CF911F910F91FF90EF90A5
:10258000DF900895FF920F931F93CF93DF93EC0199
:10259000062F8B81681711F480E018C06B831D81B2
:1025A000FA80888199810E94CC04FC01448111FF4A
:1025B00003C0FF2DF01B0F2F4250802F6F2D89D9A4
:1025C0008C83888199810E94940A81E0DF91CF9168
:1025D0001F910F91FF900895CF93DF93EC0120E0BE
:1025E00030E00CC0FE01E20FF31FDB01A20FB31FAE
:1025F0008C9180832F5F3F4F4150504041155105D2
:1026000089F7CE01DF91CF910895FC0120E030E001
:1026100002C02F5F3F4F81918823D9F7C9010895E8
:10262000BC01EFE1F0E220E030E0808191816817A9
:10263000790788F0828193818617970760F0C90136
:10264000880F991F820F931F880F991F880F991F5A
:10265000835E9F4DF0C02F5F3F4F3C962430310585
:1026600021F70895EF92FF920F931F93CF93DF937B
:102670007C0107E110E220E030E0C0E0D0E0F801AA
:10268000808191818E159F0578F0CE01880F991F6A
:102690008C0F9D1F880F991F880F991F835E9F4D78
:1026A000BBD09C01009731F42196045F1F4FC430CA
:1026B000D10529F7C901DF91CF911F910F91FF90AB
:1026C000EF9008952F923F924F925F926F927F9278
:1026D0008F929F92AF92BF92CF92DF92EF92FF9232
:1026E0000F931F93CF93DF93582E492EB1E06B2E9B
:1026F000712C02C0660C771C8A95E2F722243324E1
:1027000026183708C7E1D0E2888199810197860DA4
:10271000971D822193212A813B81829F4001839FC3
:10272000900C929F900C1124A40160E070E08C81C9
:102730009D81252D342D8FD06B017C015B0128817B
:102740003981CE010696B601A401052D142D1ED0A7
:10275000C886D986A80CB91CAA86BB862C9680E2AE
:10276000C734D80789F6DF91CF911F910F91FF9061
:10277000EF90DF90CF90BF90AF909F908F907F9021
:102780006F905F904F903F902F900895EF92FF923F
:102790000F93CF93DF93FC017A01D9019B0141E0B4
:1027A00050E002C0440F551F0A95E2F766277727CD
:1027B000641B750BC9010197840F951F862397230E
:1027C000E20EF31EE81AF90A1197A40FB51FA6230B
:1027D000B723EC0180839183AD01440F551F9D0108
:1027E0002C0F3D1FFE0106C0F901EA1BFB0BE8831D
:1027F000F983EF014A0F5B1F2A0F3B1FCA018A1B97
:102800009B0BE816F90680F710821182DF91CF91B9
:102810000F91FF90EF900895DC012FB7F894ED91A0
:10282000FC911197309721F0808191818D939C9339
:102830002FBFCF010895DC01FB016115710551F037
:102840002FB7F8948D919C911197808391836D930C
:102850007C932FBF0895EF92FF920F931F93FC017B
:10286000EE24EA94FE2C870104C0EE0CFF1C001F2E
:10287000111F2A95D2F784819581A681B781841B87
:10288000950BA60BB70BE822F9220A231B238081A4
:102890009181A281B381E816F9060A071B0728F483
:1028A000EE24EA94FE2C870104C0E482F5820683BC
:1028B0001783B701C8011F910F91FF90EF90089502
:1028C000E82FF0E0EE0FFF1FEE0FFF1FE054FE4D6C
:1028D00060837183428353830895DC01FB0161159A
:1028E000710511F480E008952FB7F89482819381E7
:1028F000892B11F080E00FC0CB010296A283B38335
:102900001296ED91FC9113978083918312968D938B
:102910009C93139781E02FBF08959FB7F894E82FF9
:10292000F0E0E059FF4F80816095862380839FBF50
:102930000895982F80E1E0E6F6E0868384E78093AF
:10294000B0098091B10986FFFCCF80E4E0EBF9E0AB
:1029500081839093B0098091B10986FFFCCF80E418
:10296000E0EBF9E0818380E1E0E6F6E0858308951D
:102970001F93162FDEDF80E1E0E6F6E0868386E730
:102980008093B0098091B10986FFFCCF80E4E0EB31
:10299000F9E081831093B0098091B10986FFFCCFE3
:1029A00080E4E0EBF9E0818380E1E0E6F6E0858316
:1029B0001F910895BEDF80E1E0E6F6E0868387E7B9
:1029C0008093B009E0EBF9E08091B10986FFFACF7E
:1029D00080E481838091B409806184838FEF809348
:1029E000B009E0EBF9E08091B10986FFFACF80E40D
:1029F00081838091B0099091B4099F7E948390E186
:102A0000E0E6F6E0958308950F931F93182F092FA2
:102A100082E28FDF80E1E0E6F6E0868386E780935E
:102A2000B0098091B10986FFFCCF80E4E0EBF9E0CA
:102A300081831093B0098091B10986FFFCCF80E4B7
:102A4000E0EBF9E081830093B0098091B10986FF42
:102A5000FCCF80E4E0EBF9E0818380E1E0E6F6E0A2
:102A600085831F910F910895EF92FF920F931F930B
:102A7000DF93CF930F920F92CDB7DEB789839A83FE
:102A8000142F052FF62EE72E82E253DF80E1E0E6D9
:102A9000F6E0868386E78093B0098091B10986FFCE
:102AA000FCCF80E4E0EBF9E08183CE010196E0E029
:102AB000F1E0808F918F128E82E090E0848B958B75
:102AC00080E5828B8FE6838B212F302F4F2D5E2D5B
:102AD000C901DA019C01AD017FEF64EBA0EBB9E025
:102AE00090E411C0768B608B8091110187FDFCCF43
:102AF0008091B10986FFFCCF11969C9311972F5FAF
:102B00003040404050402F3F31054105510550F7BE
:102B1000612F702F8F2D9E2D2FEF30E040E050E081
:102B20000E944A27662389F0E0E0F1E0668B84EB9F
:102B3000808B8091110187FDFCCF8091B10986FFC8
:102B4000FCCF80E4E0EBF9E0818380E1E0E6F6E0B1
:102B500085830F900F90CF91DF911F910F91FF9080
:102B6000EF900895CF92DF92EF92FF920F931F9311
:102B7000D82EC92E7A018B0182E2DBDE80E1E0E60D
:102B8000F6E0868386E78093B0098091B10986FFDD
:102B9000FCCF80E4E0EBF9E08183E0E0F1E0D08E6F
:102BA000C18E128E80E1828B8FE6838BD801C701A4
:102BB000880F991FAA1FBB1F9D0144275527BC01E1
:102BC000222389F0148A158A268B84EA808B8091CF
:102BD000110187FDFCCF8091B10986FFFCCF80E415
:102BE000E0EBF9E081836115710591F0E0E0F1E03F
:102BF000648B758B84E8808B8091110187FDFCCFFD
:102C00008091B10986FFFCCF80E4E0EBF9E081839D
:102C100080E1E0E6F6E085831F910F91FF90EF9051
:102C2000DF90CF900895CF92DF92EF92FF920F93B3
:102C30001F93D82EC92E7A018B0182E27ADE80E1C1
:102C4000E0E6F6E0868386E78093B0098091B109DB
:102C500086FFFCCF80E4E0EBF9E08183B801A701B7
:102C6000440F551F661F771F8D2D9C2DFC01A0EB77
:102C7000B9E090E40FC084918093B0098091B109CC
:102C800086FFFCCF11969C9311973196415050408E
:102C900060407040411551056105710561F780E1A3
:102CA000E0E6F6E085831F910F91FF90EF90DF90B3
:102CB000CF900895AF92BF92CF92DF92EF92FF92A2
:102CC0000F931F93D62EC72EB82EA92E79018A01F5
:102CD00082E22FDE80E1E0E6F6E0868386E78093FD
:102CE000B0098091B10986FFFCCF80E4E0EBF9E008
:102CF0008183EE0CFF1C001F111F2D2D3C2D4B2D31
:102D00005A2DC901DA019C01AD01A0EBB9E090E4B4
:102D100016C0F9014BBF80811BBE8093B009809122
:102D2000B10986FFFCCF11969C9311972F5F3F4FFF
:102D30004F4F5F4F0894E108F10801091109E114B0
:102D4000F1040105110529F780E1E0E6F6E085834D
:102D50001F910F91FF90EF90DF90CF90BF90AF90B9
:102D60000895DC01F9018091C8219091C92148178B
:102D700059071CF0AC01415050408091D2219091F4
:102D8000D321E817F90714F0FC0131979D01B7FF33
:102D900002C020E030E02093CC213093CD219B0174
:102DA00077FF02C020E030E02093D0213093D12182
:102DB0004093CA215093CB21E093CE21F093CF21B1
:102DC00008951F9380FD02C020E001C020E481FD32
:102DD00002C010E001C010E882FD02C080E001C026
:102DE00080E2122B182B86E1E5DD682F6F71612BD5
:102DF00086E1BEDD15FF09C080E491E08093C82123
:102E00009093C92180EF90E008C080EF90E080931C
:102E1000C8219093C92180E491E08093D2219093BE
:102E2000D3214091C8215091C92141505040209157
:102E3000D2213091D3212150304080E090E060E0F9
:102E400070E08FDF1F9108958091C8219091C92172
:102E500008958091D2219091D3210895EF92FF920D
:102E60000F931F938C017B01612F772767FD7A9564
:102E700082E07EDD83E0602F7BDD6F2D772767FDAD
:102E80007A9586E075DD87E06E2D72DD1F910F91DA
:102E9000FF90EF900895CF93DF939C01EA0180911A
:102EA000CC219091CD2128173907CCF08091CA21EF
:102EB0009091CB218217930794F08091D02190912B
:102EC000D121681779075CF08091CE219091CF21B4
:102ED0008617970724F0C901C1DFCE0195DDDF9188
:102EE000CF910895EF92FF920F931F938C017B0176
:102EF000692F772767FD7A9584E03ADD85E0602FBA
:102F000037DD6F2D772767FD7A9588E031DD89E021
:102F10006E2D2EDD1F910F91FF90EF900895EF928F
:102F2000FF920F931F938A01790198DFC801B701BF
:102F3000D9DF1F910F91FF90EF900895CF93DF930A
:102F4000FC019B01EA018091CC219091CD21E817F1
:102F5000F907D4F08091CA219091CB218E179F0759
:102F60009CF08091D0219091D1216817790764F06D
:102F70008091CE219091CF21861797072CF0CF0119
:102F8000AF01CDDFCE0140DDDF91CF9108951F93DA
:102F900080E061E0C2DCE0E0F1E010E8108380EB6B
:102FA000848F89E0858F168E84E060E2B6DCE0E6EF
:102FB000F6E080E185838183118380E4828380E26F
:102FC0008183E0EBF9E080EC858381E0868388E112
:102FD000848380E696E064E040E050E00E9429218E
:102FE000E0E0FBE08181856181838BE490E080A754
:102FF00091A784E690E086A397A387E0808380E68C
:1030000096E061E040E053E00E94292180E696E0EE
:1030100062E040E053E00E94292112E0109366062E
:1030200082E390E00E9463261093650688E893E1AE
:103030000E94632689E1BEDC682F6B6389E198DC1E
:1030400080E593EC0E9463268BE1B4DC682F6E7FF1
:103050008BE18EDC86E464E98BDC87E461E488DC68
:1030600088E460E085DC89E463E382DC8AE463E28F
:103070007FDC8BE465E47CDC8CE464E479DC8DE467
:1030800067E776DC8EE462E173DC8FE46CEC70DC85
:1030900080E566E46DDC81E562E86ADC81E066E09B
:1030A00067DC8AE361E064DC8BE361E061DC8CE394
:1030B00060EF5EDC8DE360E05BDC8EE368E358DCB0
:1030C00080E46FE055DC81E460EF52DC87E262E08F
:1030D0004FDC88E262E04CDC89E262E049DC8AE2B3
:1030E00062E046DC8CE262E043DC8DE262E040DCE0
:1030F00080E76EE03DDC89E169E43ADC82E060E093
:1031000037DC83E060E034DC84E060E031DC85E0E3
:103110006FEE2EDC86E060E02BDC87E060E028DCF0
:1031200088E061E025DC89E06FE322DC86E168E08D
:103130001FDC83E265E91CDC84E265E919DC85E2D9
:103140006FEF16DC80E96FE713DC85E368E310DCE2
:1031500086E368E70DDC8DE167E00ADC8EE160E084
:1031600007DC8FE164E004DC80E260E401DC84E4FD
:1031700068E3FEDB85E462E1FBDB80E197E20E942D
:1031800063268CE164E0F4DB80E29EE40E94632627
:1031900083E460E8EDDB88E893E10E9463268BE13D
:1031A00068E0E6DB80E49CE90E9463268BE160E155
:1031B000DFDB80E49CE90E94632686E264E0D8DBE2
:1031C00080E49CE90E94632686E264E2D1DB86E229
:1031D0006CE2CEDB80E49CE90E94632686E26CE32D
:1031E000C7DB86E0EEDD1F9108952F923F924F924C
:1031F0005F926F927F928F929F92AF92BF92CF9287
:10320000DF92EF92FF920F931F93DF93CF93CDB78F
:10321000DEB76397CDBFDEBF6C015B0179010B8325
:103220004115510519F4A90189DECAC0CA01880FE8
:10323000991F00271127081B190B0D5F1F4FA9822B
:10324000BA8216014A8B5B8B2601350188249924AA
:103250002B81822F90E0FC01E170F070EC83FD8304
:103260009C01227030702E833F83FC01E470F0706B
:10327000E887F9879C01287030702A873B87FC011A
:10328000E071F070EC87FD879C01207230702E8712
:103290003F87FC01E074F070E88BF98B8BC02C81C8
:1032A0003D81232B39F08A899B898C0D9D1DB301AB
:1032B000A70144DE8E819F81892B41F0B501EA8907
:1032C000FB896E1B7F0BC101A70138DE288539857C
:1032D000232B41F0B5018A899B89681B790BC201B8
:1032E000A7012CDEEA85FB85EF2B41F0C6012A8978
:1032F0003B89821B930BB301A70120DE8C859D8542
:10330000892B49F0C601EA89FB898E1B9F0B6981D5
:103310007A81A70113DE2E853F85232B39F06A8938
:103320007B896A0D7B1DC201A70108DE8889998906
:10333000892B39F06A897B896A0D7B1DC101A70140
:10334000FDDD9B8197FF08C08A899B898C0D9D1D9F
:1033500069817A81A701F2DD17FF0AC00A5F1F4F5A
:10336000C401880F991F880F991F080F191F10C0DB
:10337000065F1F4FC401EA89FB898E1B9F0B880FD4
:10338000991F880F991F080F191F3197EA8BFB8B24
:103390000894811C911C29813A812F5F3F4F29831A
:1033A0003A830894211C311C089441085108089460
:1033B000610871088A899B89881599050CF06FCF7F
:1033C0006396CDBFDEBFCF91DF911F910F91FF902C
:1033D000EF90DF90CF90BF90AF909F908F907F90B5
:1033E0006F905F904F903F902F900895AF92BF9253
:1033F000CF92DF92EF92FF920F931F93CF93DF93C1
:10340000FB016A01790158014115510509F47DC09C
:103410002115310509F479C057FF07C0D094C19434
:10342000D108D39401968C199D09F7FE07C0F0943A
:10343000E194F108F3943196EE19FF094091CA2105
:103440005091CB21481759070CF45FC0C091CE2191
:10345000D091CF21CE17DF070CF457C0D601A80FAB
:10346000B91F2091CC213091CD212A173B070CF0B8
:103470004CC087010E0F1F1F6091D0217091D12188
:10348000601771070CF041C08217930714F09C017C
:1034900003C06D01C21AD30AE617F70714F0BF0183
:1034A00003C07801E61AF70AF901EC0DFD1D31970A
:1034B000DB01AE0DBF1D11974E175F0714F0AF0172
:1034C00007C04F5F5F4F6A01C21AD30A4150504094
:1034D000CA17DB0714F0ED0105C021967E01E61A3C
:1034E000F70A2197C9019E011ADDB701882777FDE8
:1034F0008095982F9601442737FD4095542F0E94C0
:103500000427AB01BC01C501AFDADF91CF911F9158
:103510000F91FF90EF90DF90CF90BF90AF90089504
:103520000F931F93FA01890141E050E09F015EDF94
:103530001F910F9108952F923F924F925F926F9239
:103540007F928F929F92AF92BF92CF92DF92EF9233
:10355000FF920F931F93DF93CF93CDB7DEB72B97D7
:10356000CDBFDEBF3C014B0169014115510519F486
:10357000A901E4DCB8C0CA01880F991FEE24FF241A
:10358000E81AF90A23E030E0E20EF31E69827A823B
:103590001B014A875B872301F1E0AF2EB12C802FFE
:1035A00090E0FC01E370F070EB83FC839C012C70D5
:1035B00030702D833E83FC01E073F070EF83F88759
:1035C000F02FF07CF98786C02B813C81232BA1F062
:1035D0008A859B85860D971DB101A5019601A0DF07
:1035E000B4018A859B85681B790BAC014F5F5F4FE7
:1035F00089819A81960194DFED81FE81EF2BA1F004
:10360000C3012A853B85821B930BB101A50196015D
:1036100087DFB4018A859B85681B790BAC014F5FFE
:103620005F4FC20196017CDFEF81F885EF2B89F0B7
:10363000C3012A853B85821B930BB401A50196012A
:103640006FDF4A855B854F5F5F4FC201B401960112
:1036500067DF3985332389F08A859B85860D971D21
:10366000B401A50196015CDF4A855B854F5F5F4F22
:1036700089819A81B401960153DFF7FE0BC086E081
:1036800090E0E80EF91E000F111F000F111FE00E51
:10369000F11E12C0EAE0F0E0EE0EFF1E2A853B8527
:1036A000021B130B000F111F000F111FE00EF11E64
:1036B000215030402A873B870894A11CB11C898186
:1036C0009A81019689839A83089441085108089445
:1036D00021083108850101501040EA85FB85E0177B
:1036E000F1070CF071CF2B96CDBFDEBFCF91DF91EC
:1036F0001F910F91FF90EF90DF90CF90BF90AF9010
:103700009F908F907F906F905F904F903F902F9001
:1037100008950F931F93890121E030E067DE1F9128
:103720000F9108958F929F92AF92BF92CF92DF92A6
:10373000EF92FF920F931F937C016B015A01490195
:103740009801E7DFB60161507040680D791DC7012F
:10375000A5019801DEDFC701B601A4019801E0DEF2
:103760000894E108F108C7018A0D9B1DB601A40168
:103770009801D6DE1F910F91FF90EF90DF90CF90D0
:10378000BF90AF909F908F9008952F923F924F924D
:103790005F926F927F928F929F92AF92BF92CF92E1
:1037A000DF92EF92FF920F931F93CF93DF936C0101
:1037B0005B017A011801E81AF90AF7FC04C041E03C
:1037C000442E512C07C0F094E194F108F394442462
:1037D0004A94542C89010A191B0917FD04C091E071
:1037E000692E712C06C0109501951F4F66246A94AE
:1037F000762C8091C8219091C9216091D22170913D
:10380000D3216150704001976DDB0E151F05DCF46C
:10381000E701D595C7954601CC24DD24C401B50147
:10382000A10139DBC01BD10BD7FF04C0CE0DDF1DBA
:10383000A60CB71C0894C11CD11CEC14FD04F4F0B8
:10384000840C951CEBCFE801D595C7954601CC2497
:10385000DD24C401B501A1011EDBCE19DF09D7FFAC
:1038600004C0C00FD11F840C951C0894C11CD11C2E
:103870000C151D051CF0A60CB71CEBCFDF91CF91EA
:103880001F910F91FF90EF90DF90CF90BF90AF907E
:103890009F908F907F906F905F904F903F902F9070
:1038A0000895EF92FF920F931F93CF93DF93DC0164
:1038B000FB018A017901278130E0858190E0289F12
:1038C000E001299FD00D389FD00D1124868190E012
:1038D000829FF001839FF00D929FF00D1124BF0194
:1038E00041E050E020E030E08C918A3029F46E0F06
:1038F0007F1F20E030E008C08D3031F02C0F3D1FDD
:10390000421753070CF4A90111968C91882361F793
:10391000F80140835183F70160837183DF91CF9178
:103920001F910F91FF90EF9008952F923F924F9229
:103930005F926F927F928F929F92AF92BF92CF923F
:10394000DF92EF92FF920F931F93DF93CF93CDB748
:10395000DEB76A97CDBFDEBFB82E698F7A8F4A0176
:1039600069010F8B188FF9018085B81608F4B82EFD
:10397000F60181858B1508F4B82EF8EFEF16F104E7
:10398000D9F0F601278130E0858190E0289FA001E1
:10399000299F500D389F500D1124868190E0B90168
:1039A000869F9001879F300D969F300D1124898D41
:1039B0009A8DB40187011ADDF6018081882321F0F8
:1039C000813009F0E3C065C0F60147808581482F4A
:1039D00046954695469590E087709070892B09F042
:1039E0004F5FF60156808B2D90E02085821B910958
:1039F000252D30E0B901869F9001879F300D969F5D
:103A0000300D1124842F90E0FC012E9FC0012F9FC8
:103A1000900D3E9F900D1124F601A180B280A80E5A
:103A2000B91E242C3324F601F581FE8B898D9A8DE5
:103A30009C0179016624772423C0872D90E087704C
:103A40009070892B29F4F50164900894A11CB11C95
:103A500067FE12C0F1E04F1631F4C701B4014F897F
:103A6000588D6CDA09C0C701B401442D50E0242DF3
:103A700030E00F89188DBADCE20CF31C660C7394ED
:103A80004E897416D0F25A9409F480C0820C931CAB
:103A9000CACFF60147808581282F26952695269541
:103AA00090E087709070892B09F02F5FF6015680A7
:103AB000259D802D112490E02B2D30E04085241B86
:103AC0003109829F5001839FB00C929FB00C11244A
:103AD00084E1782E242C3324F601F581FD8B898D29
:103AE0009A8D9C017901662448C0862D90E08770EC
:103AF0009070892B21F544E17416B9F4F6018181A7
:103B00009281A381B481A50160E070E0480F591F44
:103B10006A1F7B1FCE01019624E130E00E946F26D0
:103B200044E150E0A40EB51E7724E1E0F0E0EC0F94
:103B3000FD1FE70DF11D8081809393217394809187
:103B4000932187FF12C051E0451631F4C701B4013B
:103B50004F89588DF3D909C0C701B401442D50E0F5
:103B6000242D30E00F89188D41DCE20CF31C80918C
:103B70009321880F8093932163946D89661608F4CE
:103B8000B4CF5A9419F0820C931CA6CF6A96CDBF7D
:103B9000DEBFCF91DF911F910F91FF90EF90DF90EB
:103BA000CF90BF90AF909F908F907F906F905F90DD
:103BB0004F903F902F9008952F923F924F925F9297
:103BC0006F927F928F929F92AF92BF92CF92DF922D
:103BD000EF92FF920F931F93DF93CF9300D0CDB757
:103BE000DEB76C016983272E4A015901280137018C
:103BF000F9013780FC014491862F972F9C012A837D
:103C00003B832BC04A3069F4F5018681389EC001A0
:103C10001124880E991E2981322DC9018A839B8324
:103C200017C0F60180818D3099F0842F6A817B81E5
:103C3000A40195018201730178DEF5018581389E2A
:103C4000C00111242A813B81280F391F2A833B831D
:103C50000894C11CD11CF6014491442399F6239683
:103C6000CDBFDEBFCF91DF911F910F91FF90EF90FD
:103C7000DF90CF90BF90AF909F908F907F906F908C
:103C80005F904F903F902F9008952F923F924F92C8
:103C90005F926F927F928F929F92AF92BF92CF92DC
:103CA000DF92EF92FF920F931F93DF93CF9300D099
:103CB000CDB7DEB75C016983272E4A01690128016F
:103CC0003701F9013780862F972F9C012A833B8388
:103CD000F50180818A3069F4F6018681389EC00141
:103CE0001124880E991E2981322DC9018A839B8354
:103CF00014C08D3091F06A817B81A401960182010C
:103D0000730113DEF6018581389EC00111242A81DA
:103D10003B81280F391F2A833B830894A11CB11CC7
:103D2000F50180818823A1F62396CDBFDEBFCF9118
:103D3000DF911F910F91FF90EF90DF90CF90BF9098
:103D4000AF909F908F907F906F905F904F903F903B
:103D50002F9008952F923F924F925F926F927F9291
:103D60008F929F92AF92BF92CF92DF92EF92FF928B
:103D70000F931F93DF93CF93CDB7DEB72897CDBFB7
:103D8000DEBFFC0169837A83370126012080318000
:103D9000E114F10409F4BBC1C114D10409F4B7C1A1
:103DA000C090CA21D090CB21C216D3060CF4AFC16B
:103DB000A090CE21B090CF21A016B1060CF4A7C1DF
:103DC0008090CC219090CD21C701820F931F88163F
:103DD00099060CF09CC16091D0217091D1216F8324
:103DE0007887C201800F911F681779070CF08FC187
:103DF0002815390514F049010DC0C9018819990920
:103E0000680E791E89819A81880D991D821B930BFA
:103E100089839A83AF81B8850A171B071CF00F832B
:103E200018870BC0C8012F813885821B930B480E61
:103E3000591E420F531F401B510BC401860D971D85
:103E400001972F813885240D351D21503040C8162B
:103E5000D90614F06C0109C00894C11CD11C3601AC
:103E6000681879080894C108D108A216B30614F09E
:103E700059010BC00894A11CB11C25016F817885E4
:103E8000461A570A0894A108B10884818130C1F00C
:103E9000813038F0823009F46FC0833009F037C1C7
:103EA000C6C0C818D9088F819885A81AB90A058193
:103EB0001681C4016F817885A601950197DA27C123
:103EC0000581168189819A81880F991F080F191F12
:103ED000141615066CF4C101880F991FDC01A49F0C
:103EE000C001A59F900DB49F900D1124080F191FBC
:103EF000C601B5010E9472172614370451F07101F2
:103F0000EE0CFF1C62011301442437FC4094542C36
:103F10002FC0E981FA81EF2B91F7C4016F81788579
:103F20000E942E17B201882777FD8095982F910166
:103F3000442737FD4095542F67D7AB01BC01C8011A
:103F40000E94B215E4C0C4016F8178850E942E17CB
:103F50002F8138852F5F3F4F2F833887C801B201EB
:103F6000A1010E94B2150E0D1F1D0894C108D108B1
:103F70001C141D0444F3CBC00581168189819A81EC
:103F8000880F991F080F191F141615066CF4C1012C
:103F9000880F991FBC01649FC001659F900D749F9D
:103FA000900D1124080F191FC601B5010E94721748
:103FB0002614370451F07101EE0CFF1C620113014D
:103FC000442437FC4094542C2EC089819A81892B3B
:103FD00091F7C4016F8178850E942E17B20188275E
:103FE00077FD8095982F9101442737FD4095542FF8
:103FF0000BD7AB01BC01C8010E94131688C0C401D5
:104000006F8178850E942E17AF81B8851196AF8396
:10401000B887C801B201A1010E9413160E0D1F1D21
:104020000894C108D1081C141D044CF370C085818C
:104030009681A781B085E981FA817F010027F7FC8D
:104040000095102FE80EF91E0A1F1B1F14161506E7
:104050007CF4BA01882777FD8095982F9101442739
:1040600037FD4095542FD0D6E60EF71E081F191FB6
:10407000C601B5010E94721726143704B1F52981D3
:104080003A81232B91F5C4016F8178850E942E1708
:10409000B201882777FD8095982F9101442737FD3D
:1040A0004095542FB1D69B01AC01C801B7010E94C5
:1040B0005A162DC0C4016F8178850E942E176F811A
:1040C00078856F5F7F4F6F837887C801B7012B8139
:1040D0003C814D815E810E945A16E40CF51C061D40
:1040E000171D0894C108D1080FC06201C301AA2797
:1040F00097FDA095BA2F8B839C83AD83BE8321014E
:10410000662457FC6094762C1C141D049CF228969F
:10411000CDBFDEBFCF91DF911F910F91FF90EF9048
:10412000DF90CF90BF90AF909F908F907F906F90D7
:104130005F904F903F902F9008952F923F924F9213
:104140005F926F927F928F929F92AF92BF92CF9227
:10415000DF92EF92FF920F931F93DF93CF9300D0E4
:1041600000D0CDB7DEB71C01FA0129833A830B8357
:104170001C83DC0114968C9114978823A9F421E008
:1041800030E0A901461B570B89819A81480F591FBE
:104190002E1B3F0B200F311F15960D911C9116976A
:1041A000CB01BF0123D93FC0D1014D905C90119745
:1041B00012966D907C90139747016419750902C09F
:1041C000840C951C68157905DCF78601AF0146194A
:1041D000570902C0060D171D40175107DCF758019B
:1041E0001AC0C10160E070E040E050E02D813E81E6
:1041F000850172016301AEDDED81FE81E40DF51DE7
:10420000ED83FE832D813E8189819A8182179307F8
:1042100044F7A60CB71CAB81BC81AA15BB051CF0EA
:104220008D829E82EFCF2696CDBFDEBFCF91DF91EC
:104230001F910F91FF90EF90DF90CF90BF90AF90C4
:104240009F908F907F906F905F904F903F902F90B6
:104250000895CF93DF93DC01FC01709620E030E0FD
:10426000C62FD0E0CE01022E02C0959587950A9404
:10427000E2F780FD40832F5F3F4F319628303105B4
:1042800089F750FF0CC051FF04C015966C93159729
:1042900003C016966C93169711966C9302C01296F3
:1042A0006C93DF91CF9108951F920F920FB60F92EA
:1042B00008B60F920BB60F92112418BE1BBE8F9337
:1042C000EF93FF93E9E0F6E080818C7F808310928A
:1042D0009F211092A0211092A1211092A22182E090
:1042E0008093952180EC8093B0001092100680930B
:1042F000020680E28093050680E3809301068093A6
:10430000210288E3809329028DE080930002FF91CF
:10431000EF918F910F900BBE0F9008BE0F900FBEC4
:104320000F901F9018951F920F920FB60F9208B61C
:104330000F92112418BE2F933F934F935F938F9347
:104340009F9380919521823021F0833009F081C0C4
:104350003CC08091100290E040911102342F20E087
:10436000282B392B5091120240911302942F80E098
:10437000850F911D820F931F9695879520919F2100
:104380003091A021280F391F20939F213093A02125
:10439000809194218F5F809394218430E0F110927A
:1043A000942183E08093952180E38093B000109264
:1043B00010068093020680EC8093010680E28093D1
:1043C000210288E28093290226C08091100290E0A9
:1043D00040911102342F20E0282B392B50911202EA
:1043E00040911302942F80E0850F911D820F931F3F
:1043F000969587952091A1213091A221280F391FF0
:104400002093A1213093A221809194218F5F8093EA
:104410009421843020F48DE0809300021AC0109221
:10442000942184E08093952190EC9093B0008BE1EF
:10443000809310069093020680E380930606809393
:1044400001069FB7F8948091BF2181608093BF21BE
:104450009FBF9F918F915F914F913F912F910F90AF
:1044600008BE0F900FBE0F901F90189521E020936B
:1044700095211092962190EC9093B0008BE180935F
:1044800010069093020680E380930606809301064F
:1044900082E08093060220932A0220930C06E9E032
:1044A000F6E080818C7F8160808308959FB7F894C7
:1044B000E9E0F6E080818C7F808310922A029FBF22
:1044C00008952FB7F8948093D8219093D9212FBFC6
:1044D00008958091D8219091D9210895A3EAB1E25D
:1044E000FC018CE101900D928150E1F708952F922B
:1044F0003F924F925F926F927F928F929F92AF9274
:10450000BF92CF92DF92EF92FF920F931F93DF93B0
:10451000CF93CDB7DEB7EE97CDBFDEBF8C016DAFC9
:104520007EAFDC0114962D913C911597A90160E0B6
:1045300070E04DA35EA36FA378A716962D913C91D2
:104540001797B90180E090E069A37AA38BA39CA39D
:10455000C8010896DC0114962D903C9015974424D0
:10456000552416962D913C911797A90160E070E0B3
:104570004D8F5E8F6F8F78A3D801509614962D9132
:104580003C911597A90160E070E0498F5A8F6B8FBD
:104590007C8F16962D913C911797A90160E070E0F1
:1045A0004D8B5E8B6F8B788FF80120813181A90153
:1045B000662757FD6095762F498B5A8B6B8B7C8BCA
:1045C00022813381A901662757FD6095762F4D879B
:1045D0005E876F87788B20853185A901662757FD17
:1045E0006095762F49875A876B877C87FC0182818B
:1045F00093819C01442737FD4095542F2D833E83A2
:104600004F835887F80160887188882477FC8094EC
:10461000982C12968D919C9113979C01442737FDFD
:104620004095542F29833A834B835C83A988BA88A9
:10463000CB88DC88A618B708C808D9084D8D5E8DD0
:104640006F8D78A18D899E89AF89B88D481B590BD4
:104650006A0B7B0B49AF5AAF6BAF7CAF29853A85AC
:104660004B855C8526193709480959092DAB3EABA6
:104670004FAB58AF49A15AA16BA17CA1841B950BEC
:10468000A60BB70B89AB9AABABABBCABBC01CD01F6
:104690002DA93EA94FA958ADB7D37B018C0169ADB7
:1046A0007AAD8BAD9CADA6019501AED3E60EF71E9B
:1046B000081F191FADADBEADED92FD920D931C9379
:1046C00013972DA13EA14FA158A5698D7A8D8B8D91
:1046D0009C8D261B370B480B590B2DA73EA74FA7C8
:1046E00058AB621973098409950969A77AA78BA742
:1046F0009CA7A601950188D37B018C016DA57EA5A1
:104700008FA598A92DA93EA94FA958AD7DD3E60E36
:10471000F71E081F191FADADBEAD1496ED92FD92A8
:104720000D931C931797C401B3012DA13EA14FA176
:1047300058A56AD37B018C0169897A898B899C8908
:10474000298D3A8D4B8D5C8D5FD3E61AF70A080BE5
:10475000190BC801B7012D8D3E8D4F8D58A154D333
:104760005B016C0169857A858B859C85298D3A8DE5
:104770004B8D5C8D49D37B018C01C401B301A20137
:10478000910142D3E61AF70A080B190BC801B701C9
:1047900029A13AA14BA15CA137D3A60EB71EC81E12
:1047A000D91E69897A898B899C89A20191012CD3B0
:1047B0007B018C0169857A858B859C852DA13EA125
:1047C0004FA158A521D3E61AF70A080B190BC80107
:1047D000B7012D893E894F89588D16D3A60EB71E75
:1047E000C81ED91EEDADFEADA086B186C286D386A9
:1047F000AD84BE84CF84D88829813A814B815C8185
:10480000A21AB30AC40AD50A6D807E808F8098846C
:10481000621A730A840A950AC401B30129A93AA944
:104820004BA95CA9F1D27B018C01C601B50129AD70
:104830003AAD4BAD5CADE8D2E60EF71E081F191F6E
:10484000ADADBEAD1C96ED92FD920D931C931F97DE
:10485000C601B50129A53AA54BA55CA5D5D27B011A
:104860008C01C401B3012DA53EA54FA558A9CCD2FA
:10487000E60EF71E081F191FEDADFEADE08AF18AA6
:10488000028B138B69817A818B819C812DA13EA142
:104890004FA158A5B9D27B018C016D857E858F858E
:1048A0009889298D3A8D4B8D5C8DAED2E61AF70A28
:1048B000080B190BC801B7012D8D3E8D4F8D58A1E6
:1048C000A3D25B016C016D817E818F819885298DDA
:1048D0003A8D4B8D5C8D98D27B018C0169817A81F8
:1048E0008B819C81A20191018FD2E61AF70A080BF5
:1048F000190BC801B70129A13AA14BA15CA184D22F
:10490000A60EB71EC81ED91E6D857E858F85988917
:10491000A201910179D27B018C016D817E818F8111
:1049200098852DA13EA14FA158A56ED2E61AF70A8F
:10493000080B190BC801B7012D893E894F89588D85
:1049400063D2A60EB71EC81ED91EADADBEAD54961D
:10495000AD92BD92CD92DC925797298D3A8D4B8DB9
:104960005C8D221A330A440A550AC201B10129A9F1
:104970003AA94BA95CA948D27B018C016DA57EA503
:104980008FA598A929AD3AAD4BAD5CAD3DD2E60EF1
:10499000F71E081F191FADADBEAD5896ED92FD92E2
:1049A0000D931C935B97EE96CDBFDEBFCF91DF9149
:1049B0001F910F91FF90EF90DF90CF90BF90AF903D
:1049C0009F908F907F906F905F904F903F902F902F
:1049D00008952F923F924F925F926F927F928F92A3
:1049E0009F92AF92BF92CF92DF92EF92FF920F937E
:1049F0001F93DF93CF93CDB7DEB76897CDBFDEBFF0
:104A00008091BB219091BC21A091BD21B091BE218C
:104A100089839A83AB83BC830097A105B10541F4D8
:104A200081E090E0A0E0B0E089839A83AB83BC830F
:104A3000A0919F21B091A021B695A795B695A79575
:104A4000AD8BBE8BA0939F21B093A021E091A121BB
:104A5000F091A221F695E795F695E795EF8BF88F03
:104A6000E093A121F093A2212091A3213091A421D0
:104A70004091A5215091A6218091A7219091A82134
:104A8000A091A921B091AA21898B9A8BAB8BBC8B69
:104A90002090AB213090AC214090AD215090AE21C0
:104AA0008091AF219091B021A091B121B091B2211C
:104AB0008D879E87AF87B88B8091B3219091B42169
:104AC000A091B521B091B62189879A87AB87BC8721
:104AD0008091B7219091B821A091B921B091BA21CC
:104AE0008D839E83AF83B88791E090930C0680916D
:104AF0000C0680FD0CC090939521809196218150E9
:104B0000823008F099C083E0809396218CC0AD89F3
:104B1000BE895D01CC24DD24EF89F88D3F01882416
:104B20009924C601B50170D17B018C01C401B30188
:104B300029893A894B895C8967D1E60EF71E081FDF
:104B4000191F2E0C3F1C401E511EC201B1012981AC
:104B50003A814B815C81C0D119012A01C601B5019E
:104B60002D853E854F8558894FD17B018C01C4012D
:104B7000B30129853A854B855C8546D1E60EF71E43
:104B8000081F191F8D819E81AF81B8858E0D9F1DD5
:104B9000A01FB11F8D839E83AF83B887BC01CD0159
:104BA00029813A814B815C8197D179018A0185E025
:104BB0008093952180919621882311F0833011F400
:104BC00081E01BC08091972190919821AA2797FDA1
:104BD000A095BA2F82159305A405B50569F48091B7
:104BE000992190919A21AA2797FDA095BA2F8E1509
:104BF0009F05A007B10701F182E080939621AD895E
:104C0000BE89A0939B21B0939C21EF89F88DE093FE
:104C10009D21F0939E212092972130929821E0923D
:104C20009921F0929A21E091D821F091D9213097E1
:104C300019F086E991E21995809109068C7F8160CF
:104C4000809309066896CDBFDEBFCF91DF911F919B
:104C50000F91FF90EF90DF90CF90BF90AF909F901B
:104C60008F907F906F905F904F903F902F9008951E
:104C70001F931092D8211092D9211092010287E03F
:104C80008093040280E18093020211E010932002DD
:104C9000109328021093000280EC80930A0680E4AF
:104CA0008093060680E88093050680E069EE74E252
:104CB00040E050E00E9460141093952110929621DC
:104CC000F5DB1F910895A0E0B0E023E0880F991F65
:104CD000AA1FBB1F2A95D1F70197F1F70895DC01B0
:104CE000C9012115310539F0FA016BBF01900D9210
:104CF0000197E1F71BBE08951BBEFC0128ED24BF00
:104D000060830895E0E7F0E08FEF8193E737F105E6
:104D1000E1F781E490E061E0EFDF80915000826094
:104D20008093500080915100869580FFFBCF88E8EA
:104D30008093550080915000806180935000809155
:104D4000510084FFFCCF80E490E064E0D5DF8091E7
:104D500050008E7F80935000089580E896E06FEFBA
:104D600040E053E076DA80E496E068E040E053E02B
:104D700070DA80E496E060E240E051E06ADA80E4D4
:104D800096E060E840E051E064DA80EA96E06FEF98
:104D900048E150E05EDA81E062E00E948D148FE02D
:104DA0008093E4068FEF8093E0068093200780EFE6
:104DB0008093000780E068E00E948D1481E080937A
:104DC00040048EE0809341048FEB809348048FE78A
:104DD000809349041092440484E08093450489E35D
:104DE0008093460488E08093470410925D041092FB
:104DF0005E0480E880935F048FE380935C0480917D
:104E00005D0487FFFCCF0895629FD001739FF0017E
:104E1000829FE00DF11D649FE00DF11D929FF00D4A
:104E2000839FF00D749FF00D659FF00D9927729F81
:104E3000B00DE11DF91F639FB00DE11DF91FBD010C
:104E4000CF0111240895AA1BBB1B51E107C0AA1F63
:104E5000BB1FA617B70710F0A61BB70B881F991F1B
:104E60005A95A9F780959095BC01CD01089597FBBF
:104E7000092E07260AD077FD04D0E5DF06D00020F2
:104E80001AF4709561957F4F0895F6F79095819586
:104E90009F4F0895A1E21A2EAA1BBB1BFD010DC056
:104EA000AA1FBB1FEE1FFF1FA217B307E407F507DA
:104EB00020F0A21BB30BE40BF50B661F771F881FB6
:104EC000991F1A9469F760957095809590959B014C
:104ED000AC01BD01CF01089597FB092E05260ED028
:104EE00057FD04D0D7DF0AD0001C38F45095409508
:104EF000309521953F4F4F4F5F4F0895F6F79095AE
:104F00008095709561957F4F8F4F9F4F0895546F97
:104F10007563682073637265656E2063616C696296
:104F2000726174696F6E2E0A0A546F756368206926
:104F30006E736964652074686520636972636C656B
:104F4000732E000000000000000020202020200020
:104F500020505050000000005050F850F8505020A1
:104F600078A07028F020C0C810204098186090A049
:104F700040A89068602040000000001020404040A1
:104F8000201040201010102040005020F820500029
:104F9000002020F8202000000000006020400000D9
:104FA00000F8000000000000000060600008102011
:104FB000408000708898A8C8887020602020202039
:104FC00070708808102040F8F810201008887010C1
:104FD000305090F81010F880F00808887030408049
:104FE000F0888870F80810204040407088887088E9
:104FF00088707088887808106000606000606000C9
:105000000060600060204008102040201008000070
:10501000F800F800008040201020408070880810C0
:1050200020002070880868A8A87070888888F88890
:1050300088F08888F08888F070888080808870E0A8
:105040009088888890E0F88080F08080F8F88080F0
:10505000E080808070888080988870888888F88850
:105060008888702020202020703810101010906048
:105070008890A0C0A09088808080808080F888D8A8
:10508000A8888888888888C8A89888887088888828
:10509000888870F08888F080808070888888A890E0
:1050A00068F08888F0A09088788080700808F0F810
:1050B00020202020202088888888888870888888F8
:1050C00088885020888888A8A8D888888850205048
:1050D000888888885020202020F80810204080F8F8
:1050E0003820202020203800804020100800E020B8
:1050F00020202020E0205088000000000000000058
:105100000000F840201000000000000070087888BF
:10511000788080B0C88888F000007080808870082F
:1051200008689888887800007088F8807030484057
:10513000E0404040000078887808308080B0C8881F
:1051400088882000602020207010003010109060AF
:1051500040404850605048602020202020700000CF
:10516000D0A8A888880000B0C88888880000708807
:105170008888700000F088F08080000068987808C7
:10518000080000B0C8808080000070807008F04087
:1051900040E04040483000008888889868000088D7
:1051A0008888502000008888A8A8500000885020D7
:1051B0005088000088887808700000F8102040F8B7
:1051C00010202040202010202020202020204020BF
:1051D0002010202040002010F8102000002040F86F
:1051E000402000000306090D101316191C1F22256C
:1051F000292C2F3235383B3E4144474A4D505356B7
:10520000595C5F6264676A6D707375787B7E8083BA
:1052100086888B8E909395989A9D9FA2A4A7A9AB00
:10522000AEB0B2B4B7B9BBBDBFC1C3C5C7C9CBCDA2
:10523000CFD0D2D4D6D7D9DBDCDEDFE1E2E4E5E7BC
:10524000E8E9EAECEDEEEFF0F1F2F3F4F5F6F7F75A
:10525000F8F9F9FAFBFBFCFCFDFDFDFEFEFEFFFF8D
:04526000FFFFFF004D
:10526400022047617567652044656D6F0000434FF8
:105274000000060701207F100040004720000000C6
:105284000000002000200047200000000000004033
:1052940000040047200000000000008000040047D4
:1052A40020000000000000DA210000803E00000021
:00000001FF
