:10000000F9C000001DC100001BC1000019C10000A3
:1000100017C1000015C1000013C1000011C100008C
:100020000FC100000DC100000BC1000009C100009C
:1000300007C1000005C1000003C1000001C10000AC
:10004000FFC00000FDC00000FBC00000F9C00000C0
:10005000F7C00000F5C00000F3C00000F1C00000D0
:10006000EFC00000EDC00000EBC00000E9C00000E0
:10007000E7C00000E5C00000E3C00000E1C00000F0
:10008000DFC00000DDC00000DBC00000D9C0000000
:10009000D7C00000D5C00000D3C00000D1C0000010
:1000A000CFC00000CDC00000CBC00000C9C0000020
:1000B000C7C00000C5C00000C3C00000C1C0000030
:1000C000BFC00000BDC00000BBC00000B9C0000040
:1000D000B7C00000B5C00000B3C00000B1C0000050
:1000E000AFC00000ADC00000ABC00000A9C0000060
:1000F000A7C00000A5C00000A3C00000A1C0000070
:100100009FC000009DC000000C94F52899C000001D
:1001100097C0000095C0000093C0000091C000008F
:100120000C9434298DC000008BC0000089C00000F1
:1001300087C0000085C0000083C0000081C00000AF
:100140007FC000007DC000007BC0000079C00000BF
:1001500077C0000075C0000073C0000071C00000CF
:100160006FC000006DC000006BC0000069C00000DF
:1001700067C0000065C0000063C0000061C00000EF
:100180005FC000005DC000005BC0000059C00000FF
:1001900057C0000055C0000053C0000051C000000F
:1001A0004FC000004DC000004BC0000049C000001F
:1001B00047C0000045C0000043C0000041C000002F
:1001C0003FC000003DC000003BC0000039C000003F
:1001D00037C0000035C0000033C0000031C000004F
:1001E0002FC000002DC000002BC0000029C000005F
:1001F00027C0000011241FBEAFEFBFE3BEBFADBFDD
:10020000C2EAD0E0088117E0012B08831BBEE6EAB2
:10021000F1E600E00BBFA0E0B0E2C2E6D0E202C02F
:1002200007900D92AC17BD07D9F700270BBFC4E0AC
:10023000D2E201C01D92AC17BD07E1F702D0FFCF9B
:10024000DFCE0F931F93DF93CF93CDB7DEB72F97FA
:10025000CDBFDEBF78940E94232E0E944E2E81E0F7
:10026000809386068EEE91E28093EE219093EF21AB
:100270008093F0219093F1210E94D92D0E94D729DB
:100280000E94681F80E090E00E94031B0E94CB0D3B
:10029000D2D48C01D3D4DE011196FC018FE0019001
:1002A0000D928150E1F719861A86C801BE016F5F71
:1002B0007F4F44E00E94BB0CC8010E943A0C109290
:1002C00064201092652080E693E0809362209093F2
:1002D000632082E690E266D00EEE11E2F89420915F
:1002E000E921222349F1822F90E08F709070892BB1
:1002F00019F0322F40E004C0322F32953F7044E0B5
:10030000832F90E083709070892B19F44E5F36959F
:10031000369530FF11C0442379F42E7F2093E921D4
:100320007894E091EA21F091EB218091EC21909179
:10033000ED211995F894D3CFE091EE21F091EF21C2
:1003400081E2EE3EF80701F1808191818093EE21F8
:100350009093EF218091F0219091F1218E179F07CA
:1003600021F40093F0211093F121DF0112971296EE
:100370001D921C921397109739F07894ED91FC918F
:100380001197CD011995AACF7894A8CFE091662056
:10039000F0916720FC96DC0189E00D90019281507C
:1003A000E1F70895CF92DF92EF92FF920F931F93A0
:1003B0006C0186E490E00E94D31A809366209093AB
:1003C0006720F8E6EF2EF0E2FF2EC70160E270E250
:1003D0004AE050E00E94131682E080936F20009163
:1003E0006620109167200E940A2AF80182A393A335
:1003F00086EC91E00E94022A0E94C51E8C010E9498
:10040000CA1E9C0180E090E060E070E0A8010E94BC
:10041000521E0E94C51E8C010E94CA1E9C0180E0D3
:1004200090E060E070E0A80100E01FE10E949721E9
:1004300080E59EE56AE070E040E550E097010FEF4F
:100440001FEFE8EFEE2EF12C0E947D250091662033
:10045000109167200E94C51EC397F80184A395A33D
:1004600000916620109167200E94CA1EC397F80170
:1004700086A397A3E0906620F090672002E310E047
:10048000F70104A715A70E94CA1EC397F70186A704
:1004900097A7E0916620F091672004AB15AB06ABFF
:1004A00017AB66A177A184A195A145E050E02FEF9D
:1004B0003FEF0FEF0E949620E0916620F0916720B9
:1004C000EB5BFF4F1082E554F040C482D58212826C
:1004D000138289E792E0808391838EEE91E2BF01DF
:1004E0000E940E1C1F910F91FF90EF90DF90CF9014
:1004F00008950F931F93CF93DF93EC018C010B5B57
:100500001F4FD8018C91833020F0833009F0D3C085
:10051000A5C08EEE91E2BE010E940E1C8CAD833010
:1005200009F0C9C01CAED801EC91F0E0359653E05B
:10053000EE0FFF1F5A95E1F7EC0FFD1FCF5BDF4F6A
:1005400088819981C154D04080839183EC91F0E0FF
:1005500043E0EE0FFF1F4A95E1F7EC0FFD1FCD5B67
:10056000DF4F88819981C354D04082A793A78C9193
:10057000482F50E0CA010197DA01149633E0AA0F20
:10058000BB1F3A95E1F7AC0FBD1FFA01359623E08A
:10059000EE0FFF1F2A95E1F7EC0FFD1F0D90BC91A8
:1005A000A02D2081318103E0880F991F0A95E1F782
:1005B0008C0F9D1FFC0162A573A5FA0113E0EE0FDD
:1005C000FF1F1A95E1F7EC0FFD1F82A593A5A21B53
:1005D000B30BB7FF03C0B095A195BF4FA45FB14067
:1005E0006CF49B01281B390BC90137FF03C09095A0
:1005F00081959F4F845F91400CF45DC0FA01B3E098
:10060000EE0FFF1FBA95E1F7EC0FFD1F66A177A172
:1006100084A195A145E050E020E03FE10FEF0E946A
:100620009620FE01EB5BFF4F80818F5F80838330DC
:1006300008F041C0E82FF0E0A3E0EE0FFF1FAA95FD
:10064000E1F7EC0FFD1F66A177A184A195A145E01C
:1006500050E02FEF3FEF0E9496202DC06EA97FA99A
:100660008CA99DA945E050E020E03FE10FEF0E94FA
:1006700096208E010A5F1F4FCE018496B8010E941A
:10068000182AC8010E940F2A8AA19BA10E94022A4F
:1006900080916620909167200E94B11AE0916620B7
:1006A000F0916720648175816115710521F08EEEEE
:1006B00091E20E940E1CDF91CF911F910F9108953E
:1006C0002F923F924F925F926F927F928F929F9262
:1006D000AF92BF92CF92EF92FF920F931F93DF934F
:1006E000CF93CDB7DEB72897CDBFDEBF81E0809333
:1006F000A520A1D28C0110927C208AE499E68093F7
:100700007D2090937E2019821A821B821C820E9477
:10071000C51E8D839E830E94CA1E8F839887C80141
:100720002E010894411C511CB20148E750E220E020
:1007300030E00AED15E0EE24FF240E941B0E8093AA
:10074000722090937320009709F48AC10E94170EBB
:100750003C010E943A0C86E090E089839A838B8367
:100760009C830091002010910120CE010596B801D4
:100770000E942111C301B201A80120E00E944F1084
:10078000009709F465C10E944B100E943A0C8AE060
:1007900090E089839A8358E2A52EB12CAB82BC826B
:1007A00044E1242E312C2D823E828AEA90E08F8310
:1007B0009887C301B20140EF28E706E031E0E32E5D
:1007C000F12C0E943811809374209093752000972B
:1007D00009F43EC10E942A110E943A0CE2E3F0E0C3
:1007E000E983FA8382ED90E08B839C838FEF90E026
:1007F0008D839E832F823886C301B20140EF28E7A4
:1008000002E012E0E12EF12C0E9438118093762054
:1008100090937720009709F41BC10E942A110E942F
:100820003A0CE2E3F0E0E983FA83AB82BC8286E92A
:1008300090E08D839E838F839887109295208FEF11
:100840009FEF809396209093972000D08AE499E6BA
:10085000EDB7FEB78183928382E08383C301B20147
:1008600041E950E220EF08E7BAE5EB2EAEE1CA2EEF
:10087000F8EFAF2EB12CE3E68E2EECE29E2E0E9416
:100880001F1380939A2090939B200F900F900F90AE
:10089000009709F4DDC00E941813ECD7E2EDF0E0F8
:1008A000E983FA8380E590E08B839C8384E690E083
:1008B0008D839E838F83988700D08AE499E6EDB775
:1008C000FEB7818392831382C301B20140E050E0FE
:1008D00020EF34E6E32ECC240E941F1380939C204B
:1008E00090939D200F900F900F90009709F4B0C047
:1008F0000E941813BFD788E790E089839A8394E019
:10090000892E912C8B829C828CE390E08D839E8338
:100910002F823886C301B20146E050E223E030E086
:100920000E94DC0E009709F493C00E94D80EA2D753
:1009300089819A812D813E81820F931F0A96898336
:100940009A83E2E3F0E0ED83FE832F8238861092F3
:100950008C208FEF9FEF80938D2090938E20C3018A
:10096000B20148E850E22BE835E000E010E0EE2468
:10097000FF240E941B0E8093822090938320009777
:1009800009F466C00E94170E75D784E0A82E81E096
:10099000B82EA982BA828B829C82E2E3F0E0ED83DA
:1009A000FE832F82388610928C208FEF9FEF8093EA
:1009B0008D2090938E20C301B20148E850E221E3DC
:1009C00035E00E941B0E9C0180938420909385202B
:1009D0008091822090918320892BD1F1C9010E94BE
:1009E000170E48D7A982BA828EE190E08B839C8350
:1009F000E2E3F0E0ED83FE832F82388610928C20B4
:100A00008FEF9FEF80938D2090938E208091822096
:100A100090918320892BE1F080918620909187200E
:100A20000E94170E27D72896CDBFDEBFCF91DF914A
:100A30001F910F91FF90EF90CF90BF90AF909F903C
:100A40008F907F906F905F904F903F902F90089580
:100A500080917220909173200E94170E0E948C0D3D
:100A6000FFCFEF92FF920F931F93DF93CF9300D0AE
:100A70000F92CDB7DEB77B0180919A2090919B2099
:100A80000E941C1360EF4FE70E94050E0E94111395
:100A90002DB73EB7285030402DBF3EBFEDB7FEB753
:100AA00031968E010F5F1F4FADB7BEB711960D93F4
:100AB0001C93129724E030E0228333832DE030E250
:100AC00024833583868317820E944A1AEDB7FEB7C6
:100AD0003896EDBFFEBFD7016D917C911197625E94
:100AE0007F4F12964D915C911397445F5F4FC80101
:100AF00020E230E200E010E0E8EFEE2EF12C0E9460
:100B0000E6252496CDBFDEBFCF91DF911F910F91D7
:100B1000FF90EF900895EF92FF920F931F93DF9352
:100B2000CF9300D00F92CDB7DEB77B018DB79EB7C4
:100B300008978DBF9EBFEDB7FEB731968E010F5F50
:100B40001F4FADB7BEB711960D931C93129784E05B
:100B500090E0828393838DE090E2848395838091FB
:100B60008120868317820E944A1AEDB7FEB7389615
:100B7000EDBFFEBFD7016D917C911197625E7F4FF3
:100B800012964D915C911397445F5F4FC80120E22C
:100B900030E200E010E0F8EFEF2EF12C0E94E625A5
:100BA0002496CDBFDEBFCF91DF911F910F91FF90B3
:100BB000EF9008950F931F936230F1F0633059F175
:100BC0006130A9F500919A2010919B2080917420AA
:100BD000909175200E942E11682FC8010E94E8157F
:100BE00080918420909185200E94170E36D68091A6
:100BF00086209091872018C000919C2010919D2004
:100C000080917620909177200E942E11682FC80144
:100C10000E94E8150CC0809181208F5F8093812015
:100C200080918220909183200E94170E16D680E03A
:100C30001F910F91089581EB90E208950895089512
:100C4000FC018585968508958093B5219093B62102
:100C50000895FC01DB012D913C91119784819581D0
:100C600028173907CCF012966D917C9113978681E5
:100C700097816817790784F080859185821793079B
:100C80005CF020E082859385861797070CF421E0BD
:100C900081E02827822F089580E090E00895FC01EC
:100CA000DB01208131816D917C911197621773076F
:100CB000ECF04281538112960D90BC91A02DA417A7
:100CC000B507A4F084819581280F391F6217730737
:100CD0006CF420E086819781480F591FA417B5074F
:100CE0000CF021E081E02827822F089580E090E039
:100CF0000895FC01DB01208131818D919C91119738
:100D0000A901481B590B1416150654F4241B350B66
:100D10002083318384819581840F951F84839583FB
:100D20002281338112968D919C911397A901481BC2
:100D3000590B1416150654F4241B350B22833383E8
:100D400086819781840F951F86839783448155817F
:100D500014962D913C9115978D919C911197280F88
:100D6000391F241B350B80819181281B390B1216EA
:100D7000130624F4240F351F2483358346815781BD
:100D800016962D913C91179712968D919C911397E1
:100D9000280F391F241B350B82819381281B390BA7
:100DA0001216130624F4240F351F26833783089563
:100DB0000F931F93CF93DF93DC01FB01608171815F
:100DC00024813581C281D3810681178118968D9146
:100DD0009C911997861797070CF44AC01A968D9123
:100DE0009C911B978C179D070CF442C0AB01420FDE
:100DF000531F415050401496ED91FC9115974E179A
:100E00005F07B4F19E01200F311F2150304016962C
:100E10008D919C9117972817390754F1E617F7071A
:100E200024F414966D937C93159716968D919C914E
:100E300017978C179D0724F41696CD93DC9317977C
:100E400018968D919C9119974817590724F4189674
:100E50004D935C9319971A968D919C911B97281727
:100E6000390724F41A962D933C931B9781E001C017
:100E700080E0DF91CF911F910F910895EF92FF9243
:100E80000F931F93CF93DF938C01EA01FC018081C4
:100E90009181A281B38188839983AA83BB83808156
:100EA0009181A281B3818C839D83AE83BF83808136
:100EB000918124813581820F931F019788879987BB
:100EC0008281938126813781820F931F01978A87C0
:100ED0009B87CA016DDF882309F05FC065C0F801F8
:100EE000078510898C819D8197FF02C01C821D821D
:100EF0008E819F8197FF02C01E821F82F80124818C
:100F00003581888599858217930724F021503040D8
:100F100028873987F801268137818A859B85821742
:100F2000930724F0215030402A873B874C815D8114
:100F30006885798564177507BCF1EE80FF80AA8506
:100F4000BB85AE15BF0584F188819981F8012081A8
:100F50003181820F931F8883998380819181480F0B
:100F6000591F4C835D8380819181680F791F688749
:100F700079878A819B8122813381820F931F8A83A3
:100F80009B8382819381E80EF91EEE82FF8282812B
:100F90009381A80FB91FAA87BB87F0E2013B1F0707
:100FA00009F09DCF81E001C080E0DF91CF911F91DA
:100FB0000F91FF90EF900895EF92FF920F931F9380
:100FC000DF93CF93CDB7DEB72C97CDBFDEBF9C01AB
:100FD0007B01B9018E010F5F1F4FA8014FDFC801D0
:100FE000B70137DE2C96CDBFDEBFCF91DF911F91C9
:100FF0000F91FF90EF900895FC01DB0180819181BA
:101000008D939C9311978281938112C08D919C91B5
:10101000119720813181820F931F8D939C9311979B
:1010200012968D919C91139722813381820F931F89
:1010300012968D939C9313970784F089E02D309737
:1010400029F70895CF93DF93EC012B893C89EF8535
:10105000F8892817390719F4158A168A13C0858963
:1010600096898C179D0711F4258B368BEB89FC89AB
:1010700089899A89818B928BA989BA895396ED9334
:10108000FC9354971F86188A1B8A1C8A198A1A8A0D
:10109000DF91CF910895CF93DF93EC01DB01ED89D0
:1010A000FE89309749F453966D937C9354975196EB
:1010B0006D937C93529712C05396ED93FC93549783
:1010C0008189928951968D939C935297618B728BF3
:1010D0005196ED91FC915297638B748BAD8BBE8BC7
:1010E0001F96CD93DC935097DF91CF910895DC014B
:1010F0001A96ED91FC911B97309711F480E00895BA
:10110000199508950F931F93CF93DF93182F092FED
:101110008EEE91E26DEC70E20E940E1C4FB7F894D7
:101120002091C9203091CA208091CB209091CC2071
:10113000B901681B790B60317105A1F48091B1216F
:101140009091B221A091B321B091B4210196A11D3B
:10115000B11D8093B1219093B221A093B321B0939C
:10116000B42124C0C9018F709070880F991FFC01B1
:1011700023E0EE0FFF1F2A95E1F7E81BF90BEF5272
:10118000FF4DEF01212F302FC901DC018EE00D90C2
:1011900009928150E1F7108211828091C9209091CB
:1011A000CA2001968093C9209093CA204FBFDF9137
:1011B000CF911F910F910895DF93CF93CDB7DEB7F5
:1011C0002E97CDBFDEBF22E02B83DE011496FC01FB
:1011D00086E001900D928150E1F7CE01019692DFF9
:1011E0002E96CDBFDEBFCF91DF910895DF93CF93D1
:1011F000CDB7DEB72E97CDBFDEBF1B82DE011496C2
:10120000FC018BE001900D928150E1F7CE01019637
:1012100079DF2E96CDBFDEBFCF91DF910895DF93AA
:10122000CF93CDB7DEB72B97CDBFDEBFFC0121E05A
:101230002A878181928189839A83838194818B8398
:101240009C83E081E23031F0E33031F0E13031F481
:101250001B8604C02B8702C082E08B871D82CE01D3
:101260000196C4DF2B96CDBFDEBFCF91DF910895ED
:101270008F929F92AF92BF92CF92DF92EF92FF92A6
:101280000F931F93CF93DF934C015B01FB016681AA
:1012900077814085518522853385848195810E949F
:1012A000521EF40180859185009779F0F5016481E3
:1012B0007581468157812085318502851385E080BF
:1012C000F180C280D3800E943E28C40167E0A5015E
:1012D0000EDFF401C589D689209779F00988DA896B
:1012E000C02D8F89882319F0CE01B50113D0F401E8
:1012F00085899689C817D90789F7DF91CF911F9102
:101300000F91FF90EF90DF90CF90BF90AF909F90A4
:101310008F900895EF92FF920F931F93DF93CF93D7
:10132000CDB7DEB72C97CDBFDEBF7C018B01FC01B2
:1013300080819181A281B3819C0189839A83AB834F
:10134000BC838D839E83AF83B887608171818481E4
:101350009581680F791F615070400280F381E02D04
:10136000D70116968D919C911797E80FF91F319729
:10137000D8018D919C911197280F391F29833A83A9
:10138000A9012D833E83680F791F69877A878B8136
:101390009C8112962D913C911397820F931F8B8302
:1013A0009C838F819885820F931F8F839887E20F8C
:1013B000F31FEB87FC8714962D913C9115974217EC
:1013C000530714F42D833E83D80116962D913C913A
:1013D00017978217930714F42F833887D80118962C
:1013E0008D919C9119978617970714F489879A878E
:1013F000D8011A966D917C911B976E177F0714F494
:101400006B877C872D813E8189859A85821793071A
:1014100064F02F8138858B859C85821793072CF08B
:10142000C701BE016F5F7F4F23DF2C96CDBFDEBFAC
:10143000CF91DF911F910F91FF90EF900895EF9260
:10144000FF920F931F93DF93CF93CDB7DEB72C9707
:10145000CDBFDEBF8C017B01AE014F5F5F4F0EDD64
:10146000882309F444C0D8011F968D919C91509710
:10147000892B41F01C968C9181FF04C0C801B701F3
:1014800040D035C0C8017E010894E11CF11CB701B1
:10149000EFDE29C089819A81F80120813181821B88
:1014A000930B89839A838B819C8122813381821B58
:1014B000930B8B839C830CC0D80151960D911C918A
:1014C0005297F8018789882319F0C801B70122DFF4
:1014D000D8011F96ED91FC91509785899689081740
:1014E000190751F78F01B0E2013B1B0799F62C96C3
:1014F000CDBFDEBFCF91DF911F910F91FF90EF9095
:101500000895DF93CF93CDB7DEB72897CDBFDEBF69
:10151000AC01DE011196FB0188E001900D92815033
:10152000E1F7DA011F96ED91FC91509729813A81FC
:1015300037FF08C08D819E81820F931F8D839E830C
:1015400019821A822B813C8137FF08C08F819885D0
:10155000820F931F8F8398871B821C8269817A81F7
:10156000248135818D819E81860F971F2817390729
:1015700024F4261B370B2D833E834B815C8126810F
:1015800037818F819885840F951F2817390724F498
:10159000241B350B2F8338878D819E8118161906E1
:1015A000B4F48F819885181619068CF48081918186
:1015B000860F971F89839A8382819381840F951F59
:1015C0008B839C83CF01BE016F5F7F4F38DF2896EE
:1015D000CDBFDEBFCF91DF9108950F931F93CF93BF
:1015E000DF93EC01EF85F889858996898C179D0733
:1015F000F1F08D899E8964E040E050E078DD0F8550
:101600001889CE011FDDC801BE0145DDCE0163E0B2
:1016100040E050E06CDDFE018789882341F00784BB
:10162000F089E02D3097C1F7CE01BE0108DFDF91D0
:10163000CF911F910F9108958F929F92AF92BF9279
:10164000CF92DF92EF92FF920F931F93DF93CF938E
:1016500000D00F92CDB7DEB76C015B01FA01DC015F
:101660005596ED90FC905697E114F10409F442C0B0
:1016700080819181A281B3819C0189839A83AB830C
:10168000BC83F60180819181281B390B29833A8321
:101690008B819C8122813381821B930B8B839C8362
:1016A00087014E010894811C911CD80157968C919A
:1016B0008823D1F0C801B401F2DA8823A9F0F5013A
:1016C0008285882339F4D8011C968C9180FF02C052
:1016D000C80183DFC801B501AE014F5F5F4FACDFCA
:1016E000882341F081E00AC0F801038914890E15AE
:1016F0001F05D9F6C60160E0A501F9DC2496CDBF2F
:10170000DEBFCF91DF911F910F91FF90EF90DF909F
:10171000CF90BF90AF909F908F9008950F931F939D
:10172000CF93DF9387C0C9018F709070880F991F86
:10173000EC0143E0CC0FDD1F4A95E1F7C81BD90B44
:10174000CF52DF4D8A81813009F449C0813020F0C9
:10175000823009F066C056C0AE014D5F5F4F809188
:10176000B9219091BA21A091BB21B091BC21888769
:101770009987AA87BB878F818823A9F08B819C8159
:101780002091B9213091BA21820F931F8B839C83C2
:101790008D819E812091BB213091BC21820F931FAE
:1017A0008D839E831F828B819C81AD81BE818093BE
:1017B000B9219093BA21A093BB21B093BC21809111
:1017C000B5219091B621009719F060E090DC29C016
:1017D00081EB90E2BA0149EB51E22EDF22C08E018B
:1017E0000D5F1F4FC091B721D091B8212097C9F04C
:1017F000CE0161E0A8017BDC882399F40F84D889AD
:10180000C02DF4CF0D811E814F815885C80162E043
:101810006EDC882331F4F801078510890115110564
:1018200099F78091CB209091CC2001968093CB208A
:101830009093CC202091CB203091CC208091C92056
:101840009091CA208217930709F06DCFDF91CF9155
:101850001F910F91089562CF0895BC01FC01878903
:10186000882339F00784F089E02D3097C1F7CB0148
:10187000E6CD0895FC018789882321F481E0878BD8
:10188000CF01EBCF0895DF92EF92FF920F931F935A
:10189000DF93CF93CDB7DEB72997CDBFDEBF8C01E5
:1018A0007B014987DE011196FC0188E001900D92D1
:1018B0008150E1F7898580FD02C0DD2410C0F70169
:1018C00080819181A281B381F80180839183A28379
:1018D000B383CE010196B7010CDADD24D394898558
:1018E00081FF22C0F70124813581F801848195812F
:1018F000281739074CF0F70126813781F8018681D6
:1019000097812817390714F4DD24D394F7018481D3
:101910009581A681B781F80184839583A683B783D7
:10192000CE010196B701E5D9C80168E0AE01475F75
:101930005F4FDDDBF8018789882391F00784F08908
:10194000E02D3097C1F706C0C801DBDD09C0C80132
:1019500076DD06C0BE016F5F7F4FDD20C1F3F4CF9F
:101960002996CDBFDEBFCF91DF911F910F91FF90E0
:10197000EF90DF900895FF920F931F93DF93CF9323
:10198000CDB7DEB72997CDBFDEBF8C01FB014987FC
:101990009E012F5F3F4FAC0188E0DA010D90AD0151
:1019A000D9010D929D018150C1F74985242F30E066
:1019B00042FD02C0FF2409C080859185D801189698
:1019C0008D939C931997FF24F39423FF07C082857E
:1019D0009385D8011A968D939C931B9724FF04C07E
:1019E0008485D8011C968C9325FF07C08585968534
:1019F000D8011D968D939C931E9723703070232BD6
:101A000021F0C801BF013FDF16C0C80168E0AE0188
:101A1000475F5F4F6CDBFF2071F0F80187898823F7
:101A200051F00784F089E02D3097C1F7C801BE015D
:101A30006F5F7F4F04DD2996CDBFDEBFCF91DF9171
:101A40001F910F91FF9008950F931F93FC018789B9
:101A50008823A9F180E2E13BF807F1F4178A0E949C
:101A6000C51E8C010E94CA1E9C0180E090E060E0CF
:101A700070E0A8010E94521E0E94C51E8C010E94A7
:101A8000CA1E9C0180E090E060E070E0A80100E0E8
:101A900010E00E94972113C0DF0157968C91579751
:101AA000882339F01F960D90BC91A02D1097A9F7AF
:101AB00002C0178A04C0178ACF01BF0122DD1F911F
:101AC0000F910895EF92FF920F931F93CF93DF939F
:101AD0007C01FC01C589D6892097B9F0CE01F2DFDF
:101AE000CE0169E040E050E002DB1B890C89CE01A9
:101AF0000E94B11A812F902FEC01F70185899689F8
:101B0000C817D90759F7158A168ADF91CF911F9107
:101B10000F91FF90EF900895CF93DF93EC018F89A1
:101B2000882311F0CE0190DFCE018CDACE01CADF1E
:101B3000CE0169E040E050E0DADACE010E94B11A4D
:101B4000DF91CF910895EF92FF920F931F93CF9360
:101B5000DF937C01162F072F88E190E00E94D31AB3
:101B6000EC01009781F0DC01812F902F9C01F9019D
:101B70008FE001900D928150E1F71F8A1D8A1E8A25
:101B8000C701BE0188DACE01DF91CF911F910F917D
:101B9000FF90EF9008950E94C51E8093B52090930A
:101BA000B6200E94CA1E8093B7209093B82088EA7E
:101BB00090E28093B9209093BA201092CF20109297
:101BC000D0208BE29CE08093CD209093CE2081EBBF
:101BD00090E28093B7219093B8210E94C51E62E0E5
:101BE00070E00E94D82E6093B9217093BA210E94B0
:101BF000CA1E62E070E00E94D82E6093BB217093F1
:101C0000BC218FE099E00C94022A489FC001112466
:101C100070E00E94C42E862F0895DC01FB0102C0F3
:101C20008D93319680818823D9F71C920895FC0109
:101C30008081918108952F923F924F925F926F928F
:101C40007F928F929F92AF92BF92CF92DF92EF924C
:101C5000FF920F931F93DF93CF93CDB7DEB72F97EC
:101C6000CDBFDEBF1C01562E472E3A014901680147
:101C7000570188E090E00E94D31A8C017C01009704
:101C800091F1FC01C282D382A482B58286829782BE
:101C9000DE011196852D942D9C01F90188E00190BB
:101CA0000D928150E1F76114710421F069867A8602
:101CB0001D8604C019861A8682E08D870E871F87CD
:101CC0008AE89EE08B879C87C101BE016F5F7F4FD2
:101CD0003ADFF80180839183892B29F4C8010E949F
:101CE000B11AEE24FF24C7012F96CDBFDEBFCF91DE
:101CF000DF911F910F91FF90EF90DF90CF90BF90F9
:101D0000AF909F908F907F906F905F904F903F909B
:101D10002F900895CF92DF92FF920F931F93CF934E
:101D2000DF938C01F62E6A010E942006EC0182E00E
:101D3000F81611F18F1518F0FF2079F130C087E007
:101D4000F81621F089E0F81651F50DC088819981C7
:101D50000817190711F5EE81FF813097F1F0C801DE
:101D6000B60119951AC08881998108171907A9F435
:101D7000CE010E94B11A11C08881998108171907F4
:101D800071F4EA81FB81309751F0CE01B6011995CB
:101D9000882319F088819981BFDE81E001C080E04D
:101DA000DF91CF911F910F91FF90DF90CF90089519
:101DB000FC018081918108956F927F928F929F9212
:101DC000AF92BF92CF92DF92EF92FF920F931F9349
:101DD000DF93CF93CDB7DEB72F97CDBFDEBF4C01DA
:101DE000762E672E5A01790187E090E00E94D31A7F
:101DF0008C016C010097B9F1FC011682E482F58236
:101E0000C50138D701960E94D31AF80182839383C3
:101E1000009721F1B50101DF86E49FE08B879C8765
:101E20000E871F87DE011196272D362DC901FC0173
:101E300088E001900D928150E1F719861A861D867F
:101E4000C401BE016F5F7F4F7EDEF8018083918306
:101E5000892B49F4828193810E94B11AC8010E94A2
:101E6000B11ACC24DD24C6012F96CDBFDEBFCF91A1
:101E7000DF911F910F91FF90EF90DF90CF90BF9077
:101E8000AF909F908F907F906F9008958F929F92C8
:101E9000AF92BF92CF92DF92EF92FF920F931F9378
:101EA000DF93CF93CDB7DEB72A97CDBFDEBF5C01FE
:101EB000162F942E852E0E9420067C01173041F0AB
:101EC000193009F4CDC0112309F487C080E0D3C0D4
:101ED000C92CD82CC5010E941F065C01D70116969B
:101EE0008C91813039F40FEF1FEFF4E88F2EF0E181
:101EF0009F2E05C004E810E188248A94982CF601EE
:101F000062817381D50114964D915C911597169657
:101F10002D913C911797808191810E949721F60124
:101F200062817381D50114964D915C911597169637
:101F30002D913C9117978081918100E010E00E94E3
:101F40003323F7018281938160E270E2AE014F5F3B
:101F50005F4F9E012D5F3F4F0E94F223D5011496E3
:101F60008D919C91159762E070E00E94D82E9B01A4
:101F700089819A8162E070E00E94D82E261B370B7F
:101F8000D601ED91FC91E20FF31FD50116968D91CC
:101F90009C91179762E070E00E94D82E9B018B8184
:101FA0009C8162E070E00E94D82E261B370BD60180
:101FB00012964D915C911397420F531FD7011296C1
:101FC0008D919C911397BF0120E230E28401E8EFEC
:101FD000EE2EF12C0E94E6254DC0092D182DF8019A
:101FE0008285882321F0823009F044C012C0D701D5
:101FF00016968C911697882309F03CC08D919C9180
:102000000E94240681E0F70186838081918125DC8E
:1020100031C0D70116968C91813061F580E090E057
:102020000E942406F70116828081918116DCD70177
:102030008D919C91B8010E94DC078823D9F0F701AB
:10204000808191818D839E83808191818F83988708
:102050008481958189879A87CE010596ADD80AC07B
:10206000DC0112968D919C9113970E94B11AC701C1
:102070000E94B11A81E02A96CDBFDEBFCF91DF91D9
:102080001F910F91FF90EF90DF90CF90BF90AF9096
:102090009F908F900895FC018081918108957F9297
:1020A0008F929F92AF92BF92CF92DF92EF92FF9268
:1020B0000F931F93DF93CF93CDB7DEB72F97CDBF8D
:1020C000DEBF4C01A62E772E6A01B22E85E090E08D
:1020D0000E94D31A8C017C010097B1F1FC01B482FB
:1020E000C601C8D501960E94D31AF8018283938352
:1020F000009729F1B60191DD86EB90E18B879C87F3
:102100000E871F87DE0111962A2D372DC901FC018C
:1021100088E001900D928150E1F719861A8682E0DD
:102120008D87C401BE016F5F7F4F0DDDF801808395
:102130009183892B49F4828193810E94B11AC8014D
:102140000E94B11AEE24FF24C7012F96CDBFDEBF37
:10215000CF91DF911F910F91FF90EF90DF90CF9083
:10216000BF90AF909F908F907F900895AF92BF9255
:10217000CF92DF92EF92FF920F931F93DF93CF9353
:1021800000D00F92CDB7DEB76C01162FB42EA52E5E
:102190000E9420067C01173021F01930D9F180E02F
:1021A00042C00B2D1A2DC6010E941F066C01F701BB
:1021B000848122813381882339F4F801608171811F
:1021C00042815381C9011CC0C90160E270E2AE01C5
:1021D0004F5F5F4F9E012D5F3F4F0E94F223F6013C
:1021E00064817581F80180819181680F791F8981EF
:1021F0009A81681B790B42815381F7018281938117
:1022000020E230E20FEF1FEFE8EFEE2EF12C0E94FC
:10221000E62508C0FC01828193810E94B11AC701A2
:102220000E94B11A81E02496CDBFDEBFCF91DF912D
:102230001F910F91FF90EF90DF90CF90BF90AF90E4
:1022400008959C01CB0160E270E2A9012E5F3F4F2F
:102250000C94F223FC01808191810895FC01828518
:10226000908583FF03C08781891B0895892F089576
:102270005F926F927F928F929F92AF92BF92CF9216
:10228000DF92EF92FF920F931F93DF93CF93CDB71F
:10229000DEB72F97CDBFDEBF3C01862E572E942E82
:1022A000D22EC02E57018DE090E00E94D31A8C01EF
:1022B0007C01009709F449C0FC0116829782D08600
:1022C000C2864C2D50E0C3FE03C0F92DFD19DF2E50
:1022D000F801D086CA0183709070892B11F0A38613
:1022E000B48689EB91E18B879C870E871F87DE017F
:1022F0001196282D352DC901FC0188E001900D9221
:102300008150E1F742FF02C04F8101C04D814A5028
:102310008D2D692D7ADCF801818719861A861D8634
:10232000C301BE016F5F7F4F0EDCF8018083918394
:10233000009731F00E5F1F4FB8010E94FC0705C0E7
:10234000C8010E94B11AEE24FF24C7012F96CDBF09
:10235000DEBFCF91DF911F910F91FF90EF90DF9043
:10236000CF90BF90AF909F908F907F906F905F9035
:1023700008957F928F929F92AF92BF92CF92DF92F9
:10238000EF92FF920F931F93DF93CF9300D000D073
:10239000CDB7DEB75C01162F942E852E0E94200645
:1023A0006C01173041F0193009F428C1112309F4E8
:1023B00098C080E025C1E92CF82CC5010E941F06B9
:1023C0005C01D6011A967C901A9716968C918823F8
:1023D00021F088248A94982C04C08EEF882E80EAFD
:1023E000982EF70162817381D50114964D915C910D
:1023F000159716962D913C9117978081918100E059
:1024000010E00E943323F701808191816281738102
:102410006F5F7F4FD50114964D915C911597425097
:10242000504016962D913C911797225030400196BE
:1024300004E810E10E949721F70180819181628177
:102440007381D60119964C9172FE24C0640F711DE0
:10245000F501448155812AE030E000E010E00E945F
:102460003323D7018D919C91119712966D917C9198
:1024700013976F5F7F4FF6012185620F711DD501A4
:1024800014964D915C91159742505040019628E06A
:1024900030E023C0F50126813781840F911D4AE089
:1024A00050E000E010E00E943323D7018D919C9111
:1024B00011970196F601418512966D917C911397C3
:1024C0006F5F7F4FD50116962D913C911797225043
:1024D0003040840F911D48E050E084010E94972114
:1024E0008EC0092D182DC5010E941F06FC01D601C2
:1024F0001A96FC901A9714966D917C9115971296E6
:102500004D915C911397D8011A968C91813099F076
:10251000813020F0823009F072C04DC0F601868112
:10252000882309F06CC081E08683C5010E942406DF
:10253000C50193D964C0D60116968C91813009F0FB
:102540005EC0F2FE0AC0D80112962D913C911397FD
:10255000261B370B4681578107C0D8012D913C912E
:10256000241B350B44815581255030408A010A5087
:10257000104037FF02C090E00DC0021713071CF493
:10258000F601978107C0822F602FD60117964C91D4
:102590003CDB982FF6018085891789F19087892F78
:1025A0006781402F32DBD60119968C93C50155D92E
:1025B000F0FC0EC024C0F6018681813001F5168240
:1025C00080E090E00E942406C50147D9F1FE17C0C3
:1025D000D6018D919C91119789839A838D919C91BD
:1025E00011978B839C831B968D919C911C978D8357
:1025F0009E83CE0101960E94DC0801C0B2D781E023
:102600002696CDBFDEBFCF91DF911F910F91FF9036
:10261000EF90DF90CF90BF90AF909F908F907F9082
:102620000895E5E2F1E6E80FF11DE4918E2F08959B
:10263000FC01808191810895FC01838108952F928E
:102640003F924F925F926F927F928F929F92AF9242
:10265000BF92CF92DF92EF92FF920F931F93DF937F
:10266000CF93CDB7DEB76297CDBFDEBF888B998B96
:102670003B011A01522ED02E4E2CCA8ACAA487E1E1
:1026800090E091D78C017C01009709F45FC0FC01B8
:102690005282D382C58281E08487A682B7828086F7
:1026A000918688A599A582879387C1FE03C0F52DE1
:1026B000FD19DF2E8FE695E18B879C870E871F879C
:1026C000DE011196F30188E001900D928150E1F74F
:1026D000BD80942D953608F094E6F3014481425074
:1026E00084E6891B64E691DAF801858B8A89853650
:1026F00008F084E6F3014481425064E686DAF8018A
:10270000868BFEEFBF0E8D2D652D4B2D7EDAF801E9
:102710008483232831F019861A861D8681E08587F7
:1027200006C019861A8682E08D87F8011586888989
:102730009989BE016F5F7F4F06DAF801808391832C
:10274000892B21F4C8010DD7EE24FF24C70162961E
:10275000CDBFDEBFCF91DF911F910F91FF90EF9022
:10276000DF90CF90BF90AF909F908F907F906F90B1
:102770005F904F903F902F900895CF92DF92EF920D
:10278000FF920F931F93CF93DF937B016A01E901BF
:10279000813009F48BC0813020F0823009F096C17D
:1027A0000FC1FB01A081B181FA0126813781FB01B4
:1027B00082819381280F391F2350304049898D89A8
:1027C00090E0840F911D4A89B901641B7109F601DB
:1027D000448155814A0F5B1F43505040EB894E0F97
:1027E000511DEE894E1B5109EC892E1B31090885BC
:1027F00019858A0F9B1F0E946623F7014081518132
:10280000F60126813781F70182819381280F391FD4
:1028100023503040CA0101966989860F911DAD8908
:102820006A89F901E61BF109BF01F60104811581EE
:10283000400F511F42505040EB894E0F511DEE8901
:102840004E1B5109EC892E1B3109088519858A0F09
:10285000911D0E946623F701A081B181F6012681B6
:102860003781F70182819381280F391F2250304030
:1028700049898D8990E0840F911D4A89B901641BB3
:102880007109F601448155814A0F5B1F4350504046
:10289000EB894E0F511DEE894E1B5109EC892E1B01
:1028A0003109088519858A0F9B1F0EC1FB016281C2
:1028B0007381FA014481558126813781F701808136
:1028C000918100E010E00E943323F701628173815F
:1028D000F601448155814250504026813781225073
:1028E0003040F701808191810AE419E60E94972126
:1028F000F60144815581F70180819181840F951FF4
:1029000062817381F60126813781620F731F6250E5
:10291000704042505040029720E030E00CE00E94AE
:102920009620F60144815581F70180819181840FC1
:10293000951F62817381F60126813781620F731FB3
:1029400062507040435050402885398502970E945C
:102950003C22F70180819181F60124813581820F2B
:10296000931FF70162817381F60126813781620F1F
:10297000731F625070404E8950E0425050400297A1
:1029800024E932EB0E943C22F70180819181F6011B
:1029900024813581820F931FF70162817381F601D3
:1029A00026813781620F731F625070404E8950E05C
:1029B00042505040029720E030E00E94962086C0AE
:1029C000FB01A081B181FA0126813781FB0182815F
:1029D0009381280F391F2350304049898D8990E019
:1029E000840F911D4A89B901641B7109F601448164
:1029F00055814A0F5B1F43505040EB894E0F511DCC
:102A0000EE894E1B5109EC892E1B31098A0F9B1F41
:102A100008EC10E00E946623F70140815181F60125
:102A200026813781F70182819381280F391F235036
:102A30003040CA0101966989860F911DAD896A8966
:102A4000F901E61BF109BF01F60104811581400F70
:102A5000511F42505040EB894E0F511DEE894E1BC5
:102A60005109EC892E1B31090E811F818A0F911D9E
:102A70000E946623F701A081B181F601268137818A
:102A8000F70182819381280F391F225030404989F4
:102A90008D8990E0840F911D4A89B901641B7109E9
:102AA000F601448155814A0F5B1F43505040EB892A
:102AB0004E0F511DEE894E1B5109EC892E1B310919
:102AC0008A0F9B1F08EA10E00E946623DF91CF91D6
:102AD0001F910F91FF90EF90DF90CF900895DF92BC
:102AE000EF92FF920F931F93CF93DF938C01F62EFB
:102AF000E42ED52E0E942006EC0187E0F81631F076
:102B0000E9E0FE1609F459C080E05AC0C8010E94ED
:102B10001F068C01FC808C85882349F48D858823D1
:102B200031F080E06E2D7D2DA8019E0126DE8C8582
:102B3000882351F08D85882339F081E06E2D7D2D1D
:102B4000A8019E011ADE1C86F801648162508F2D57
:102B50004FE75BD88E87282F30E084EA91E6821B0E
:102B6000930BFC01949190959F872B5D3E49F90151
:102B70008491888BF80144818D89481B4350892FAB
:102B80006FEF43D8898BF80146818D89481B4350EC
:102B900088896FEF3AD88A8B8F856FEF4E8935D849
:102BA0008B8B88896FEF4E8930D88C8B82E06E2DAD
:102BB0007D2DA8019E01E1DD02C0CE01D2D481E0CD
:102BC000DF91CF911F910F91FF90EF90DF900895CB
:102BD000FF920F931F93CF93DF93EC01062F8B810E
:102BE000681711F480E019C06B831D81FA80888119
:102BF00099810E941F06FC01448111FF03C0FF2D33
:102C0000F01B0F2F4250802F6F2D0E94050E8C83DA
:102C1000888199810E942D0C81E0DF91CF911F91D5
:102C20000F91FF900895CF93DF93EC0120E030E007
:102C30000CC0FE01E20FF31FDB01A20FB31F8C914A
:102C400080832F5F3F4F415050404115510589F718
:102C5000CE01DF91CF910895782FA92F9C01F90122
:102C600003C061934150504041155105D1F7872F62
:102C70009A2F0895FC0120E030E002C02F5F3F4F03
:102C800081918823D9F7C9010895BF92CF92DF922D
:102C9000EF92FF920F931F93CF93DF938C016B0101
:102CA0007A015BC0D80116968D919C911797019679
:102CB00012962D913C91139714964D915C91159716
:102CC000241B350B821B930B8E159F0558F4ED9139
:102CD000FC910280F381E02DC801B701199588238A
:102CE00009F43FC0BFB6F894F80186819781AC0122
:102CF0004F5F5F4F22813381F901E823F923D80127
:102D000014966D917C911597CB018227932784238C
:102D10009523892B29F0421B530B460F571F02C0E6
:102D20004E1B5F0BEA01E416F50608F4E701D80133
:102D300018968D919C9119978E0F9F1FB601AE0129
:102D400072DFF801828193818C0F9D1F82839383B0
:102D5000BFBECC0EDD1EEC1AFD0AE114F10409F031
:102D6000A1CFDF91CF911F910F91FF90EF90DF9056
:102D7000CF90BF9008950F931F93DF93CF930F923F
:102D8000CDB7DEB78C0169836A3019F4C8016DE0F4
:102D9000F2DFC801BE016F5F7F4F41E050E075DF99
:102DA0002981332727FD3095C9010F90CF91DF91FD
:102DB0001F910F9108954F925F926F927F928F9221
:102DC0009F92AF92BF92CF92DF92EF92FF920F93BA
:102DD0001F93DF93CF93CDB7DEB7A097CDBFDEBFF4
:102DE0002C013B01DB011796CD90DD90ED90FC901E
:102DF0001A97C114D104E104F10421F050E2A52E88
:102E0000B12C05C080E388A34FE1A42EB12CF301BF
:102E100085818F3699F0803724F4883509F094C085
:102E200011C0853739F0883709F08EC0FE01EA0DF0
:102E3000FB1D62C04E018A0C9B1C3BC0FE01EA0DCB
:102E4000FB1D13C0FE01EA0DFB1D79C08C2D8770A0
:102E5000805D33E0F694E794D794C7943A95D1F720
:102E60000894A108B10880833197C114D104E1040A
:102E7000F10461F769C0C701B6012AE030E040E023
:102E800050E00E94EB2E162F105DC701B6012AE01C
:102E900030E040E050E00E94EB2EC901DA016C0105
:102EA0007D010894A108B108D4011C9308948108FD
:102EB0009108C114D104E104F104E9F645C0D70139
:102EC000C6018F709070A070B0702C2D2F700A9773
:102ED000A105B10518F0822F895A02C0822F805DAA
:102EE00024E0F694E794D794C7942A95D1F70894F0
:102EF000A108B10880833197C114D104E104F10421
:102F0000F1F622C0D701C6018F709070A070B0702A
:102F10002C2D2F700A97A105B10518F0822F895C1E
:102F200002C0822F805D94E0F694E794D794C79412
:102F30009A95D1F70894A108B10880833197C114FC
:102F4000D104E104F104F1F6F301808191818197CC
:102F500020F080E290E08083918300E210E00A1983
:102F60001B09FE01EA0DFB1D09C00894A108B10868
:102F7000D30116968C9180833197890198012F5F38
:102F80003F4FD3018D919C910817190770F3BE0133
:102F90006F5F7F4F6A0D7B1DC201A80176DEC801FD
:102FA000A096CDBFDEBFCF91DF911F910F91FF9013
:102FB000EF90DF90CF90BF90AF909F908F907F90D9
:102FC0006F905F904F9008952F923F924F925F9233
:102FD0006F927F928F929F92AF92BF92CF92DF9229
:102FE000EF92FF920F931F93DF93CF93CDB7DEB78E
:102FF000AD97CDBFDEBF1C016CA77DA74A0100E0E5
:1030000010E066247724D8C10330110509F46AC0A2
:10301000043011055CF40130110539F1023011055D
:103020000CF03FC00115110571F0C6C10530110546
:1030300009F467C0053011050CF459C006301105BC
:1030400009F0BAC169C0653251F419821A821B8233
:103050001C821D8220E22F8301E010E0ADC1C1017E
:103060008ADE0894611C711CA7C16B3271F06C324E
:103070003CF4633251F0653259F0603281F405C09E
:103080006D3219F0603359F46F8302E010E094C19F
:10309000C10165E270DE0894611C711C8BC102E005
:1030A00010E0462F552747FD5095CA01C0970A9753
:1030B000C8F4603321F489819A81892B69F189816F
:1030C0009A819C01A3E0220F331FAA95E1F7880F94
:1030D000991F280F391F420F531F405350404983F7
:1030E0005A836AC16E3259F404E010E065C1862F3C
:1030F000992787FD9095C0970A9708F45DC105E070
:1031000010E0683621F06C3611F06C3411F46D83E8
:1031100053C16A3709F450C16E836E3609F43FC15A
:103120006F367CF4633609F4F6C0643624F46835EF
:1031300009F040C1CAC06436B9F0693609F03AC135
:1031400013C0633709F4FCC064373CF46F3609F4EC
:10315000BCC0603709F02EC105C1653709F4B5C0A0
:10316000683709F027C1B1C08D818C3671F4F40144
:1031700080819181A281B38188879987AA87BB8743
:1031800024E030E0820E931E0FC0D4018D919C91FB
:10319000AA2797FDA095BA2F88879987AA87BB870A
:1031A000E2E0F0E08E0E9F1EC884D984EA84FB849E
:1031B000C114D104E104F10439F4F0E3FBA700E009
:1031C000EFE1AE2EB12C10C0F7FC02C000E009C048
:1031D000F094E094D094C094C11CD11CE11CF11C6B
:1031E00001E070E2A72EB12C0894A108B1086CE0B0
:1031F000462E512C4C0E5D1E4A0C5B1C0894A11CE3
:10320000B11C1EC0C701B6012AE030E040E050E02A
:103210000E940D2F162F105DC701B6012AE030E085
:1032200040E050E00E940D2FC901DA016C017D01E0
:103230000894A108B108D2011C93089441085108D0
:10324000C114D104E104F104E9F6002359F0089413
:10325000A108B108ECE0F0E0EC0FFD1FEA0DFB1D4A
:10326000BDE2B08389819A81819720F0E0E2F0E0AD
:10327000E983FA8389819A812F8100E210E00A199B
:103280001B090894A108B108ECE0F0E0EC0FFD1F69
:10329000EA0DFB1D0894A11CB11C07C00894A108ED
:1032A000B10820830F5F1F4F319708171907B0F33C
:1032B0002CE030E02C0F3D1FA20EB31EC101B50162
:1032C000A801E3DC600E711E75C08D818C3671F42F
:1032D000F40180819181A281B38188879987AA872F
:1032E000BB8724E030E0820E931E0DC0D4018D9187
:1032F0009C91A0E0B0E088879987AA87BB87E2E02D
:10330000F0E08E0E9F1EC101BE016F5F7F4F53DD47
:10331000680E791E4FC084010E5F1F4FD4012D919E
:103320003C91442737FD4095542F288739874A8799
:103330005B87C101622F1FDD0894611C711C2DC0C9
:1033400084010E5F1F4FF401E080F180E886F9866A
:10335000C70190DC6C01C101B701A60196DC6C0CC1
:103360007D1C1BC084010E5F1F4FD4018D919C9169
:1033700088879987C1016DE170E242E050E085DC09
:10338000B8E7BE83C101BE016F5F7F4F14DDE2E08D
:10339000F0E06E0E7F1E680E791E48010BC0D4014E
:1033A000ED91FC91E887F98760827182E2E0F0E0BC
:1033B0008E0E9F1E00E010E0ACA5BDA56D91ACA7E0
:1033C000BDA7662309F020CED101ED91FC910190BB
:1033D000F081E02DC1011995C301AD96CDBFDEBFCF
:1033E000CF91DF911F910F91FF90EF90DF90CF90E1
:1033F000BF90AF909F908F907F906F905F904F9015
:103400003F902F900895CF93DF93EC0118C0AE85C5
:10341000BF85A80FB91F8E819F8128233923E88596
:10342000F985E20FF31F20818C819D8101968C83A9
:103430009D832C938A859B8501968A879B872C8107
:103440003D818A819B8182179307C1F08A859B8584
:103450004C855D8584179507D0F2019684179507F2
:1034600030F40CC08C819D8101968C839D832A81D0
:103470003B818C819D8128173907A1F7DF91CF917E
:103480000895FC01A081B1812D913C91F90119951C
:1034900081E008958F929F92AF92BF92CF92DF9278
:1034A000EF92FF920F931F93DF93CF93CDB7DEB7C9
:1034B000E097CDBFDEBF22968EAC9FAC22972496BC
:1034C000EEACFFAC24975E010894A11CB11C80E314
:1034D000F50111928A95E9F782E090E289839A8357
:1034E0008FE190E08F8398870894E108F108ED86DA
:1034F000FE860894E11CF11C8F86988A96E4C92EFA
:10350000D12CCC0EDD1E8E010F5E1F4FC80160E076
:1035100070E040E250E0A0DB09871A87C5012696DB
:103520006EAD7FAD2697A6014FDD9C018B859C85F6
:10353000F401E80FF91F8E159F0508F031971082EE
:10354000C901E096CDBFDEBFCF91DF911F910F91F2
:10355000FF90EF90DF90CF90BF90AF909F908F90B3
:103560000895BC01E2E3F0E220E030E08081918147
:103570006817790788F0828193818617970760F032
:10358000C901880F991F820F931F880F991F880FF9
:10359000991F805D9F4DF0C02F5F3F4F3C962430B8
:1035A000310521F70895EF92FF920F931F93CF9368
:1035B000DF937C010AE210E220E030E0C0E0D0E0DE
:1035C000F801808191818E159F0578F0CE01880FDA
:1035D000991F8C0F9D1F880F991F880F991F805D61
:1035E0009F4DBBD09C01009731F42196045F1F4F83
:1035F000C430D10529F7C901DF91CF911F910F91F7
:10360000FF90EF9008952F923F924F925F926F92AA
:103610007F928F929F92AF92BF92CF92DF92EF9262
:10362000FF920F931F93CF93DF93582E492EB1E053
:103630006B2E712C02C0660C771C8A95E2F722244F
:10364000332426183708CAE2D0E28881998101978D
:10365000860D971D822193212A813B81829F400103
:10366000839F900C929F900C1124A40160E070E065
:103670008C819D81252D342D8FD06B017C015B01C8
:1036800028813981CE010696B601A401052D142D9D
:103690001ED0C886D986A80CB91CAA86BB862C96D3
:1036A00080E2CA35D80789F6DF91CF911F910F913B
:1036B000FF90EF90DF90CF90BF90AF909F908F9052
:1036C0007F906F905F904F903F902F900895EF9272
:1036D000FF920F93CF93DF93FC017A01D9019B01F5
:1036E00041E050E002C0440F551F0A95E2F76627FB
:1036F0007727641B750BC9010197840F951F8623DB
:103700009723E20EF31EE81AF90A1197A40FB51FCA
:10371000A623B723EC0180839183AD01440F551F8D
:103720009D012C0F3D1FFE0106C0F901EA1BFB0B9A
:10373000E883F983EF014A0F5B1F2A0F3B1FCA0181
:103740008A1B9B0BE816F90680F710821182DF9125
:10375000CF910F91FF90EF900895DC012FB7F8946F
:10376000ED91FC911197309721F0808191818D939B
:103770009C932FBFCF010895DC01FB0161157105FA
:1037800051F02FB7F8948D919C911197808391837C
:103790006D937C932FBF0895EF92FF920F931F9329
:1037A000FC01EE24EA94FE2C870104C0EE0CFF1C01
:1037B000001F111F2A95D2F784819581A681B781B8
:1037C000841B950BA60BB70BE822F9220A231B23B7
:1037D00080819181A281B381E816F9060A071B074F
:1037E00028F4EE24EA94FE2C870104C0E482F582DA
:1037F00006831783B701C8011F910F91FF90EF90C7
:103800000895E82FF0E0EE0FFF1FEE0FFF1FE651C7
:10381000FE4D60837183428353830895DC01FB0175
:103820006115710511F480E008952FB7F894828135
:103830009381892B11F080E00FC0CB010296A28307
:10384000B3831296ED91FC91139780839183129626
:103850008D939C93139781E02FBF08959FB7F894A1
:10386000E82FF0E0E059FF4F808160958623808348
:103870009FBF0895982F80E1E0E6F6E0868384E715
:103880008093B0098091B10986FFFCCF80E4E0EB22
:10389000F9E081839093B0098091B10986FFFCCF54
:1038A00080E4E0EBF9E0818380E1E0E6F6E0858307
:1038B00008951F93162FDEDF80E1E0E6F6E08683B1
:1038C00086E78093B0098091B10986FFFCCF80E440
:1038D000E0EBF9E081831093B0098091B10986FF94
:1038E000FCCF80E4E0EBF9E0818380E1E0E6F6E004
:1038F00085831F910895BEDF80E1E0E6F6E08683D0
:1039000087E78093B009E0EBF9E08091B10986FF89
:10391000FACF80E481838091B409806184838FEF42
:103920008093B009E0EBF9E08091B10986FFFACF0E
:1039300080E481838091B0099091B4099F7E948343
:1039400090E1E0E6F6E0958308950F931F93182F1A
:10395000092F82E28FDF80E1E0E6F6E0868386E7EA
:103960008093B0098091B10986FFFCCF80E4E0EB41
:10397000F9E081831093B0098091B10986FFFCCFF3
:1039800080E4E0EBF9E081830093B0098091B10914
:1039900086FFFCCF80E4E0EBF9E0818380E1E0E6A4
:1039A000F6E085831F910F910895EF92FF920F9398
:1039B0001F93DF93CF930F920F92CDB7DEB789831A
:1039C0009A83142F052FF62EE72E82E253DF80E133
:1039D000E0E6F6E0868386E78093B0098091B1093E
:1039E00086FFFCCF80E4E0EBF9E08183CE01019615
:1039F000E0E0F1E0808F918F128E82E090E0848B86
:103A0000958B80E5828B8FE6838B212F302F4F2D76
:103A10005E2DC901DA019C01AD017FEF64EBA0EBE3
:103A2000B9E090E411C0768B608B8091110187FD25
:103A3000FCCF8091B10986FFFCCF11969C93119722
:103A40002F5F3040404050402F3F31054105510528
:103A500050F7612F702F8F2D9E2D2FEF30E040E01B
:103A600050E00E94EB2E662389F0E0E0F1E0668BE7
:103A700084EB808B8091110187FDFCCF8091B1098F
:103A800086FFFCCF80E4E0EBF9E0818380E1E0E6B3
:103A9000F6E085830F900F90CF91DF911F910F91EA
:103AA000FF90EF900895CF92DF92EF92FF920F93E5
:103AB0001F93D82EC92E7A018B0182E2DBDE80E1D2
:103AC000E0E6F6E0868386E78093B0098091B1094D
:103AD00086FFFCCF80E4E0EBF9E08183E0E0F1E0F9
:103AE000D08EC18E128E80E1828B8FE6838BD801BF
:103AF000C701880F991FAA1FBB1F9D014427552787
:103B0000BC01222389F0148A158A268B84EA808BD3
:103B10008091110187FDFCCF8091B10986FFFCCF18
:103B200080E4E0EBF9E081836115710591F0E0E05C
:103B3000F1E0648B758B84E8808B8091110187FDA7
:103B4000FCCF8091B10986FFFCCF80E4E0EBF9E087
:103B5000818380E1E0E6F6E085831F910F91FF907D
:103B6000EF90DF90CF900895CF92DF92EF92FF9287
:103B70000F931F93D82EC92E7A018B0182E27ADE31
:103B800080E1E0E6F6E0868386E78093B0098091E5
:103B9000B10986FFFCCF80E4E0EBF9E08183B80156
:103BA000A701440F551F661F771F8D2D9C2DFC010B
:103BB000A0EBB9E090E40FC084918093B0098091AC
:103BC000B10986FFFCCF11969C9311973196415015
:103BD000504060407040411551056105710561F725
:103BE00080E1E0E6F6E085831F910F91FF90EF9072
:103BF000DF90CF900895AF92BF92CF92DF92EF9275
:103C0000FF920F931F93D62EC72EB82EA92E79019F
:103C10008A0182E22FDE80E1E0E6F6E0868386E735
:103C20008093B0098091B10986FFFCCF80E4E0EB7E
:103C3000F9E08183EE0CFF1C001F111F2D2D3C2D80
:103C40004B2D5A2DC901DA019C01AD01A0EBB9E061
:103C500090E416C0F9014BBF80811BBE8093B00970
:103C60008091B10986FFFCCF11969C9311972F5F2D
:103C70003F4F4F4F5F4F0894E108F10801091109C8
:103C8000E114F1040105110529F780E1E0E6F6E011
:103C900085831F910F91FF90EF90DF90CF90BF90A1
:103CA000AF900895DC01F9018091F2219091F32108
:103CB000481759071CF0AC01415050408091FC213D
:103CC0009091FD21E817F90714F0FC0131979D014F
:103CD000B7FF02C020E030E02093F6213093F721B7
:103CE0009B0177FF02C020E030E02093FA2130935F
:103CF000FB214093F4215093F521E093F821F093B8
:103D0000F92108951F9380FD02C020E001C020E446
:103D100081FD02C010E001C010E882FD02C080E019
:103D200001C080E2122B182B86E1E5DD682F6F7150
:103D3000612B86E1BEDD15FF09C080E491E0809330
:103D4000F2219093F32180EF90E008C080EF90E0A3
:103D50008093F2219093F32180E491E08093FC2101
:103D60009093FD214091F2215091F3214150504018
:103D70002091FC213091FD212150304080E090E0E5
:103D800060E070E08FDF1F9108958091F2219091A3
:103D9000F32108958091FC219091FD210895EF92E7
:103DA000FF920F931F938C017B01612F772767FD93
:103DB0007A9582E07EDD83E0602F7BDD6F2D7727B3
:103DC00067FD7A9586E075DD87E06E2D72DD1F91C7
:103DD0000F91FF90EF900895CF93DF939C01EA013C
:103DE0008091F6219091F72128173907CCF0809126
:103DF000F4219091F5218217930794F08091FA2194
:103E00009091FB21681779075CF08091F8219091DF
:103E1000F9218617970724F0C901C1DFCE0195DD8E
:103E2000DF91CF910895EF92FF920F931F938C0132
:103E30007B01692F772767FD7A9584E03ADD85E07D
:103E4000602F37DD6F2D772767FD7A9588E031DDAC
:103E500089E06E2D2EDD1F910F91FF90EF90089558
:103E6000EF92FF920F931F938A01790198DFC801A7
:103E7000B701D9DF1F910F91FF90EF900895CF9375
:103E8000DF93FC019B01EA018091F6219091F721DB
:103E9000E817F907D4F08091F4219091F5218E175D
:103EA0009F079CF08091FA219091FB216817790778
:103EB00064F08091F8219091F921861797072CF0F2
:103EC000CF01AF01CDDFCE0140DDDF91CF9108956D
:103ED0001F9380E061E0C2DCE0E0F1E010E81083D5
:103EE00080EB848F89E0858F168E84E060E2B6DCFB
:103EF000E0E6F6E080E185838183118380E48283BC
:103F000080E28183E0EBF9E080EC858381E08683C9
:103F100088E1848380E696E064E040E050E00E941F
:103F2000CA28E0E0FBE08181856181838BE490E039
:103F300080A791A784E690E086A397A387E080837B
:103F400080E696E061E040E053E00E94CA2880E607
:103F500096E062E040E053E00E94CA2812E010932D
:103F6000660682E390E00E94042E1093650688E8BE
:103F700093E10E94042E89E1BEDC682F6B6389E126
:103F800098DC80E593EC0E94042E8BE1B4DC682F72
:103F90006E7F8BE18EDC86E464E98BDC87E461E490
:103FA00088DC88E460E085DC89E463E382DC8AE421
:103FB00063E27FDC8BE465E47CDC8CE464E479DC44
:103FC0008DE467E776DC8EE462E173DC8FE46CEC11
:103FD00070DC80E566E46DDC81E562E86ADC81E046
:103FE00066E067DC8AE361E064DC8BE361E061DC6E
:103FF0008CE360EF5EDC8DE360E05BDC8EE368E326
:1040000058DC80E46FE055DC81E460EF52DC87E24D
:1040100062E04FDC88E262E04CDC89E262E049DC8D
:104020008AE262E046DC8CE262E043DC8DE262E040
:1040300040DC80E76EE03DDC89E169E43ADC82E067
:1040400060E037DC83E060E034DC84E060E031DCB9
:1040500085E06FEE2EDC86E060E02BDC87E060E040
:1040600028DC88E061E025DC89E06FE322DC86E182
:1040700068E01FDC83E265E91CDC84E265E919DCA9
:1040800085E26FEF16DC80E96FE713DC85E368E318
:1040900010DC86E368E70DDC8DE167E00ADC8EE189
:1040A00060E007DC8FE164E004DC80E260E401DCD6
:1040B00084E468E3FEDB85E462E1FBDB80E197E218
:1040C0000E94042E8CE164E0F4DB80E29EE40E9416
:1040D000042E83E460E8EDDB88E893E10E94042E7F
:1040E0008BE168E0E6DB80E49CE90E94042E8BE132
:1040F00060E1DFDB80E49CE90E94042E86E264E05C
:10410000D8DB80E49CE90E94042E86E264E2D1DBE5
:1041100086E26CE2CEDB80E49CE90E94042E86E21B
:104120006CE3C7DB86E0EEDD1F9108952F923F928E
:104130004F925F926F927F928F929F92AF92BF92B7
:10414000CF92DF92EF92FF920F931F93DF93CF9363
:10415000CDB7DEB76397CDBFDEBF6C015B017901E0
:104160000B834115510519F4A90189DECAC0CA01A2
:10417000880F991F00271127081B190B0D5F1F4F70
:10418000A982BA8216014A8B5B8B260135018824ED
:1041900099242B81822F90E0FC01E170F070EC8378
:1041A000FD839C01227030702E833F83FC01E470FC
:1041B000F070E887F9879C01287030702A873B8768
:1041C000FC01E071F070EC87FD879C01207230707B
:1041D0002E873F87FC01E074F070E88BF98B8BC071
:1041E0002C813D81232B39F08A899B898C0D9D1D63
:1041F000B301A70144DE8E819F81892B41F0B50177
:10420000EA89FB896E1B7F0BC101A70138DE288577
:104210003985232B41F0B5018A899B89681B790B6D
:10422000C201A7012CDEEA85FB85EF2B41F0C60118
:104230002A893B89821B930BB301A70120DE8C8561
:104240009D85892B49F0C601EA89FB898E1B9F0B4E
:1042500069817A81A70113DE2E853F85232B39F0F2
:104260006A897B896A0D7B1DC201A70108DE8889E6
:104270009989892B39F06A897B896A0D7B1DC10177
:10428000A701FDDD9B8197FF08C08A899B898C0D62
:104290009D1D69817A81A701F2DD17FF0AC00A5FBF
:1042A0001F4FC401880F991F880F991F080F191FEE
:1042B00010C0065F1F4FC401EA89FB898E1B9F0B4C
:1042C000880F991F880F991F080F191F3197EA8BC4
:1042D000FB8B0894811C911C29813A812F5F3F4FF1
:1042E00029833A830894211C311C08944108510801
:1042F0000894610871088A899B89881599050CF0D2
:104300006FCF6396CDBFDEBFCF91DF911F910F912D
:10431000FF90EF90DF90CF90BF90AF909F908F90E5
:104320007F906F905F904F903F902F900895AF9245
:10433000BF92CF92DF92EF92FF920F931F93CF9392
:10434000DF93FB016A01790158014115510509F418
:104350007DC02115310509F479C057FF07C0D094FD
:10436000C194D108D39401968C199D09F7FE07C01A
:10437000F094E194F108F3943196EE19FF0940911D
:10438000F4215091F521481759070CF45FC0C091F2
:10439000F821D091F921CE17DF070CF457C0D601D0
:1043A000A80FB91F2091F6213091F7212A173B075A
:1043B0000CF04CC087010E0F1F1F6091FA21709105
:1043C000FB21601771070CF041C08217930714F0AE
:1043D0009C0103C06D01C21AD30AE617F70714F057
:1043E000BF0103C07801E61AF70AF901EC0DFD1DC3
:1043F0003197DB01AE0DBF1D11974E175F0714F00B
:10440000AF0107C04F5F5F4F6A01C21AD30A415024
:104410005040CA17DB0714F0ED0105C021967E015C
:10442000E61AF70A2197C9019E011ADDB70188270C
:1044300077FD8095982F9601442737FD4095542F9E
:104440000E94A52EAB01BC01C501AFDADF91CF916F
:104450001F910F91FF90EF90DF90CF90BF90AF90A2
:1044600008950F931F93FA01890141E050E09F01E5
:104470005EDF1F910F9108952F923F924F925F92AE
:104480006F927F928F929F92AF92BF92CF92DF9264
:10449000EF92FF920F931F93DF93CF93CDB7DEB7C9
:1044A0002B97CDBFDEBF3C014B0169014115510582
:1044B00019F4A901E4DCB8C0CA01880F991FEE24E1
:1044C000FF24E81AF90A23E030E0E20EF31E6982C5
:1044D0007A821B014A875B872301F1E0AF2EB12C62
:1044E000802F90E0FC01E370F070EB83FC839C0173
:1044F0002C7030702D833E83FC01E073F070EF83ED
:10450000F887F02FF07CF98786C02B813C81232B24
:10451000A1F08A859B85860D971DB101A5019601A5
:10452000A0DFB4018A859B85681B790BAC014F5FC6
:104530005F4F89819A81960194DFED81FE81EF2B97
:10454000A1F0C3012A853B85821B930BB101A50114
:10455000960187DFB4018A859B85681B790BAC01C6
:104560004F5F5F4FC20196017CDFEF81F885EF2B33
:1045700089F0C3012A853B85821B930BB401A501F9
:1045800096016FDF4A855B854F5F5F4FC201B401C3
:10459000960167DF3985332389F08A859B85860DEF
:1045A000971DB401A50196015CDF4A855B854F5FCD
:1045B0005F4F89819A81B401960153DFF7FE0BC0EA
:1045C00086E090E0E80EF91E000F111F000F111F8A
:1045D000E00EF11E12C0EAE0F0E0EE0EFF1E2A85AA
:1045E0003B85021B130B000F111F000F111FE00E64
:1045F000F11E215030402A873B870894A11CB11C32
:1046000089819A81019689839A8308944108510887
:10461000089421083108850101501040EA85FB8586
:10462000E017F1070CF071CF2B96CDBFDEBFCF9115
:10463000DF911F910F91FF90EF90DF90CF90BF908F
:10464000AF909F908F907F906F905F904F903F9032
:104650002F9008950F931F93890121E030E067DECA
:104660001F910F9108958F929F92AF92BF92CF9218
:10467000DF92EF92FF920F931F937C016B015A011F
:1046800049019801E7DFB60161507040680D791D5E
:10469000C701A5019801DEDFC701B601A401980199
:1046A000E0DE0894E108F108C7018A0D9B1DB60100
:1046B000A4019801D6DE1F910F91FF90EF90DF903B
:1046C000CF90BF90AF909F908F9008952F923F9280
:1046D0004F925F926F927F928F929F92AF92BF9212
:1046E000CF92DF92EF92FF920F931F93CF93DF93BE
:1046F0006C015B017A011801E81AF90AF7FC04C0A1
:1047000041E0442E512C07C0F094E194F108F39459
:1047100044244A94542C89010A191B0917FD04C02A
:1047200091E0692E712C06C0109501951F4F6624EB
:104730006A94762C8091F2219091F3216091FC2172
:104740007091FD216150704001976DDB0E151F05C2
:10475000DCF4E701D595C7954601CC24DD24C401DE
:10476000B501A10139DBC01BD10BD7FF04C0CE0DB1
:10477000DF1DA60CB71C0894C11CD11CEC14FD0451
:10478000F4F0840C951CEBCFE801D595C795460154
:10479000CC24DD24C401B501A1011EDBCE19DF0943
:1047A000D7FF04C0C00FD11F840C951C0894C11CF6
:1047B000D11C0C151D051CF0A60CB71CEBCFDF910E
:1047C000CF911F910F91FF90EF90DF90CF90BF900E
:1047D000AF909F908F907F906F905F904F903F90A1
:1047E0002F900895EF92FF920F931F93CF93DF9333
:1047F000DC01FB018A017901278130E0858190E0AD
:10480000289FE001299FD00D389FD00D112486816B
:1048100090E0829FF001839FF00D929FF00D112494
:10482000BF0141E050E020E030E08C918A3029F473
:104830006E0F7F1F20E030E008C08D3031F02C0F6C
:104840003D1F421753070CF4A90111968C91882340
:1048500061F7F80140835183F70160837183DF9131
:10486000CF911F910F91FF90EF9008952F923F925B
:104870004F925F926F927F928F929F92AF92BF9270
:10488000CF92DF92EF92FF920F931F93DF93CF931C
:10489000CDB7DEB76A97CDBFDEBFB82E698F7A8FEE
:1048A0004A0169010F8B188FF9018085B81608F449
:1048B000B82EF60181858B1508F4B82EF8EFEF16A7
:1048C000F104D9F0F601278130E0858190E0289F3E
:1048D000A001299F500D389F500D1124868190E032
:1048E000B901869F9001879F300D969F300D11244E
:1048F000898D9A8DB40187011ADDF60180818823A4
:1049000021F0813009F0E3C065C0F6014780858160
:10491000482F46954695469590E087709070892B74
:1049200009F04F5FF60156808B2D90E02085821BA9
:104930009109252D30E0B901869F9001879F300DA8
:10494000969F300D1124842F90E0FC012E9FC00112
:104950002F9F900D3E9F900D1124F601A180B280F3
:10496000A80EB91E242C3324F601F581FE8B898D07
:104970009A8D9C0179016624772423C0872D90E0CD
:1049800087709070892B29F4F50164900894A11C1C
:10499000B11C67FE12C0F1E04F1631F4C701B4013B
:1049A0004F89588D6CDA09C0C701B401442D50E01D
:1049B000242D30E00F89188DBADCE20CF31C660C54
:1049C00073944E897416D0F25A9409F480C0820C04
:1049D000931CCACFF60147808581282F26952695FE
:1049E000269590E087709070892B09F02F5FF60173
:1049F0005680259D802D112490E02B2D30E04085A0
:104A0000241B3109829F5001839FB00C929FB00CF0
:104A1000112484E1782E242C3324F601F581FD8BBA
:104A2000898D9A8D9C017901662448C0862D90E07D
:104A300087709070892B21F544E17416B9F4F60162
:104A400081819281A381B481A50160E070E0480F6B
:104A5000591F6A1F7B1FCE01019624E130E00E949E
:104A6000102E44E150E0A40EB51E7724E1E0F0E002
:104A7000EC0FFD1FE70DF11D80818093BD21739424
:104A80008091BD2187FF12C051E0451631F4C70166
:104A9000B4014F89588DF3D909C0C701B401442D21
:104AA00050E0242D30E00F89188D41DCE20CF31C1E
:104AB0008091BD21880F8093BD2163946D89661616
:104AC00008F4B4CF5A9419F0820C931CA6CF6A96BE
:104AD000CDBFDEBFCF91DF911F910F91FF90EF907F
:104AE000DF90CF90BF90AF909F908F907F906F900E
:104AF0005F904F903F902F9008952F923F924F924A
:104B00005F926F927F928F929F92AF92BF92CF925D
:104B1000DF92EF92FF920F931F93DF93CF9300D01A
:104B2000CDB7DEB76C016983272E4A0159012801F0
:104B30003701F9013780FC014491862F972F9C01A2
:104B40002A833B832BC04A3069F4F5018681389E65
:104B5000C0011124880E991E2981322DC9018A8332
:104B60009B8317C0F60180818D3099F0842F6A8174
:104B70007B81A40195018201730178DEF5018581B5
:104B8000389EC00111242A813B81280F391F2A83B6
:104B90003B830894C11CD11CF6014491442399F62F
:104BA0002396CDBFDEBFCF91DF911F910F91FF9074
:104BB000EF90DF90CF90BF90AF909F908F907F90BD
:104BC0006F905F904F903F902F9008952F923F925B
:104BD0004F925F926F927F928F929F92AF92BF920D
:104BE000CF92DF92EF92FF920F931F93DF93CF93B9
:104BF00000D0CDB7DEB75C016983272E4A01690179
:104C000028013701F9013780862F972F9C012A83CD
:104C10003B83F50180818A3069F4F6018681389EF4
:104C2000C0011124880E991E2981322DC9018A8361
:104C30009B8314C08D3091F06A817B81A401960121
:104C40008201730113DEF6018581389EC0011124B3
:104C50002A813B81280F391F2A833B830894A11C9A
:104C6000B11CF50180818823A1F62396CDBFDEBF5C
:104C7000CF91DF911F910F91FF90EF90DF90CF9038
:104C8000BF90AF909F908F907F906F905F904F906C
:104C90003F902F9008952F923F924F925F926F9284
:104CA0007F928F929F92AF92BF92CF92DF92EF92BC
:104CB000FF920F931F93DF93CF93CDB7DEB7289763
:104CC000CDBFDEBFFC0169837A83370126012080D6
:104CD0003180E114F10409F4BBC1C114D10409F419
:104CE000B7C1C090F421D090F521C216D3060CF4C0
:104CF000AFC1A090F821B090F921A016B1060CF434
:104D0000A7C18090F6219090F721C701820F931FD1
:104D1000881699060CF09CC16091FA217091FB21D4
:104D20006F837887C201800F911F681779070CF095
:104D30008FC12815390514F049010DC0C901881922
:104D40009909680E791E89819A81880D991D821BA7
:104D5000930B89839A83AF81B8850A171B071CF0D0
:104D60000F8318870BC0C8012F813885821B930BD6
:104D7000480E591E420F531F401B510BC401860D94
:104D8000971D01972F813885240D351D2150304006
:104D9000C816D90614F06C0109C00894C11CD11CB6
:104DA0003601681879080894C108D108A216B3061C
:104DB00014F059010BC00894A11CB11C25016F818E
:104DC0007885461A570A0894A108B1088481813071
:104DD000C1F0813038F0823009F46FC0833009F0BF
:104DE00037C1C6C0C818D9088F819885A81AB90AD2
:104DF00005811681C4016F817885A601950197DA36
:104E000027C10581168189819A81880F991F080F12
:104E1000191F141615066CF4C101880F991FDC01C7
:104E2000A49FC001A59F900DB49F900D1124080F61
:104E3000191FC601B5010E94131F2614370451F033
:104E40007101EE0CFF1C62011301442437FC4094F5
:104E5000542C2FC0E981FA81EF2B91F7C4016F81A7
:104E600078850E94CF1EB201882777FD8095982F04
:104E70009101442737FD4095542F67D7AB01BC0102
:104E8000C8010E94531DE4C0C4016F8178850E944F
:104E9000CF1E2F8138852F5F3F4F2F833887C80162
:104EA000B201A1010E94531D0E0D1F1D0894C108DF
:104EB000D1081C141D0444F3CBC0058116818981DF
:104EC0009A81880F991F080F191F141615066CF484
:104ED000C101880F991FBC01649FC001659F900D9F
:104EE000749F900D1124080F191FC601B5010E946F
:104EF000131F2614370451F07101EE0CFF1C6201E0
:104F00001301442437FC4094542C2EC089819A818B
:104F1000892B91F7C4016F8178850E94CF1EB20161
:104F2000882777FD8095982F9101442737FD40957C
:104F3000542F0BD7AB01BC01C8010E94B41D88C01F
:104F4000C4016F8178850E94CF1EAF81B88511960C
:104F5000AF83B887C801B201A1010E94B41D0E0D34
:104F60001F1D0894C108D1081C141D044CF370C007
:104F700085819681A781B085E981FA817F0100272B
:104F8000F7FC0095102FE80EF91E0A1F1B1F1416C0
:104F900015067CF4BA01882777FD8095982F91013A
:104FA000442737FD4095542FD0D6E60EF71E081F34
:104FB000191FC601B5010E94131F26143704B1F54D
:104FC00029813A81232B91F5C4016F8178850E9454
:104FD000CF1EB201882777FD8095982F9101442735
:104FE00037FD4095542FB1D69B01AC01C801B701E4
:104FF0000E94FB1D2DC0C4016F8178850E94CF1EC9
:105000006F8178856F5F7F4F6F837887C801B701A5
:105010002B813C814D815E810E94FB1DE40CF51CBF
:10502000061D171D0894C108D1080FC06201C301F5
:10503000AA2797FDA095BA2F8B839C83AD83BE834F
:105040002101662457FC6094762C1C141D049CF2EC
:105050002896CDBFDEBFCF91DF911F910F91FF90BA
:10506000EF90DF90CF90BF90AF909F908F907F9008
:105070006F905F904F903F902F9008952F923F92A6
:105080004F925F926F927F928F929F92AF92BF9258
:10509000CF92DF92EF92FF920F931F93DF93CF9304
:1050A00000D000D0CDB7DEB71C01FA0129833A83C6
:1050B0000B831C83DC0114968C9114978823A9F42C
:1050C00021E030E0A901461B570B89819A81480FE6
:1050D000591F2E1B3F0B200F311F15960D911C9150
:1050E0001697CB01BF0123D93FC0D1014D905C90F1
:1050F000119712966D907C9013974701641975096A
:1051000002C0840C951C68157905DCF78601AF0197
:105110004619570902C0060D171D40175107DCF745
:1051200058011AC0C10160E070E040E050E02D81FC
:105130003E81850172016301AEDDED81FE81E40DEA
:10514000F51DED83FE832D813E8189819A81821731
:10515000930744F7A60CB71CAB81BC81AA15BB050D
:105160001CF08D829E82EFCF2696CDBFDEBFCF9101
:10517000DF911F910F91FF90EF90DF90CF90BF9044
:10518000AF909F908F907F906F905F904F903F90E7
:105190002F900895CF93DF93DC01FC01709620E0FF
:1051A00030E0C62FD0E0CE01022E02C09595879543
:1051B0000A94E2F780FD40832F5F3F4F31962830FD
:1051C000310589F750FF0CC051FF04C015966C9350
:1051D000159703C016966C93169711966C9302C0A0
:1051E00012966C93DF91CF9108951F920F920FB694
:1051F0000F9208B60F920BB60F92112418BE1BBE69
:105200008F93EF93FF93E9E0F6E080818C7F8083BA
:105210001092C9211092CA211092CB211092CC2158
:1052200082E08093BF2180EC8093B0001092100642
:105230008093020680E28093050680E38093010656
:105240008093210288E3809329028DE080930002FD
:10525000FF91EF918F910F900BBE0F9008BE0F90B2
:105260000FBE0F901F9018951F920F920FB60F92BE
:1052700008B60F92112418BE2F933F934F935F935C
:105280008F939F938091BF21823021F0833009F06A
:1052900081C03CC08091100290E040911102342FF7
:1052A00020E0282B392B5091120240911302942FA9
:1052B00080E0850F911D820F931F96958795209111
:1052C000C9213091CA21280F391F2093C921309359
:1052D000CA218091BE218F5F8093BE218430E0F18E
:1052E0001092BE2183E08093BF2180E38093B000C1
:1052F000109210068093020680EC8093010680E2F3
:105300008093210288E28093290226C080911002B6
:1053100090E040911102342F20E0282B392B50913E
:10532000120240911302942F80E0850F911D820F8D
:10533000931F969587952091CB213091CC21280FF2
:10534000391F2093CB213093CC218091BE218F5FD8
:105350008093BE21843020F48DE0809300021AC037
:105360001092BE2184E08093BF2190EC9093B00016
:105370008BE1809310069093020680E380930606EB
:10538000809301069FB7F8948091E9218160809312
:10539000E9219FBF9F918F915F914F913F912F91F5
:1053A0000F9008BE0F900FBE0F901F90189521E030
:1053B0002093BF211092C02190EC9093B0008BE11C
:1053C000809310069093020680E3809306068093F4
:1053D000010682E08093060220932A0220930C06A5
:1053E000E9E0F6E080818C7F8160808308959FB73B
:1053F000F894E9E0F6E080818C7F808310922A02A5
:105400009FBF08952FB7F8948093022290930322B0
:105410002FBF089580910222909103220895ADEC50
:10542000B1E2FC018CE101900D928150E1F7089509
:105430002F923F924F925F926F927F928F929F92A4
:10544000AF92BF92CF92DF92EF92FF920F931F9392
:10545000DF93CF93CDB7DEB7EE97CDBFDEBF8C0124
:105460006DAF7EAFDC0114962D913C911597A9018B
:1054700060E070E04DA35EA36FA378A716962D9110
:105480003C911797B90180E090E069A37AA38BA3C0
:105490009CA3C8010896DC0114962D903C901597AA
:1054A0004424552416962D913C911797A90160E04C
:1054B00070E04D8F5E8F6F8F78A3D8015096149651
:1054C0002D913C911597A90160E070E0498F5A8FAA
:1054D0006B8F7C8F16962D913C911797A90160E0F8
:1054E00070E04D8B5E8B6F8B788FF801208131815E
:1054F000A901662757FD6095762F498B5A8B6B8BD8
:105500007C8B22813381A901662757FD6095762F18
:105510004D875E876F87788B20853185A901662747
:1055200057FD6095762F49875A876B877C87FC01EA
:10553000828193819C01442737FD4095542F2D8310
:105540003E834F835887F80160887188882477FCF0
:105550008094982C12968D919C9113979C014427CE
:1055600037FD4095542F29833A834B835C83A98868
:10557000BA88CB88DC88A618B708C808D9084D8D2A
:105580005E8D6F8D78A18D899E89AF89B88D481BFE
:10559000590B6A0B7B0B49AF5AAF6BAF7CAF2985B8
:1055A0003A854B855C8526193709480959092DAB81
:1055B0003EAB4FAB58AF49A15AA16BA17CA1841B54
:1055C000950BA60BB70B89AB9AABABABBCABBC01D5
:1055D000CD012DA93EA94FA958ADB7D37B018C01B0
:1055E00069AD7AAD8BAD9CADA6019501AED3E60E4B
:1055F000F71E081F191FADADBEADED92FD920D93C4
:105600001C9313972DA13EA14FA158A5698D7A8DAA
:105610008B8D9C8D261B370B480B590B2DA73EA756
:105620004FA758AB621973098409950969A77AA72E
:105630008BA79CA7A601950188D37B018C016DA542
:105640007EA58FA598A92DA93EA94FA958AD7DD3B8
:10565000E60EF71E081F191FADADBEAD1496ED92F4
:10566000FD920D931C931797C401B3012DA13EA188
:105670004FA158A56AD37B018C0169897A898B89EE
:105680009C89298D3A8D4B8D5C8D5FD3E61AF70A84
:10569000080B190BC801B7012D8D3E8D4F8D58A1F8
:1056A00054D35B016C0169857A858B859C85298D36
:1056B0003A8D4B8D5C8D49D37B018C01C401B301C4
:1056C000A201910142D3E61AF70A080B190BC8018F
:1056D000B70129A13AA14BA15CA137D3A60EB71EF1
:1056E000C81ED91E69897A898B899C89A20191017A
:1056F0002CD37B018C0169857A858B859C852DA1B6
:105700003EA14FA158A521D3E61AF70A080B190BA1
:10571000C801B7012D893E894F89588D16D3A60E31
:10572000B71EC81ED91EEDADFEADA086B186C286DD
:10573000D386AD84BE84CF84D88829813A814B81B9
:105740005C81A21AB30AC40AD50A6D807E808F805C
:105750009884621A730A840A950AC401B30129A9BC
:105760003AA94BA95CA9F1D27B018C01C601B50114
:1057700029AD3AAD4BAD5CADE8D2E60EF71E081F81
:10578000191FADADBEAD1C96ED92FD920D931C930D
:105790001F97C601B50129A53AA54BA55CA5D5D291
:1057A0007B018C01C401B3012DA53EA54FA558A9CD
:1057B000CCD2E60EF71E081F191FEDADFEADE08A34
:1057C000F18A028B138B69817A818B819C812DA157
:1057D0003EA14FA158A5B9D27B018C016D857E8574
:1057E0008F859889298D3A8D4B8D5C8DAED2E61AC6
:1057F000F70A080B190BC801B7012D8D3E8D4F8D8F
:1058000058A1A3D25B016C016D817E818F81988547
:10581000298D3A8D4B8D5C8D98D27B018C016981ED
:105820007A818B819C81A20191018FD2E61AF70ABD
:10583000080B190BC801B70129A13AA14BA15CA122
:1058400084D2A60EB71EC81ED91E6D857E858F8593
:105850009889A201910179D27B018C016D817E81B1
:105860008F8198852DA13EA14FA158A56ED2E61A31
:10587000F70A080B190BC801B7012D893E894F891A
:10588000588D63D2A60EB71EC81ED91EADADBEADD3
:105890005496AD92BD92CD92DC925797298D3A8D58
:1058A0004B8D5C8D221A330A440A550AC201B1019C
:1058B00029A93AA94BA95CA948D27B018C016DA505
:1058C0007EA58FA598A929AD3AAD4BAD5CAD3DD273
:1058D000E60EF71E081F191FADADBEAD5896ED922E
:1058E000FD920D931C935B97EE96CDBFDEBFCF91DB
:1058F000DF911F910F91FF90EF90DF90CF90BF90BD
:10590000AF909F908F907F906F905F904F903F905F
:105910002F9008952F923F924F925F926F927F92B5
:105920008F929F92AF92BF92CF92DF92EF92FF92AF
:105930000F931F93DF93CF93CDB7DEB76897CDBF9B
:10594000DEBF8091E5219091E621A091E721B09101
:10595000E82189839A83AB83BC830097A105B105B5
:1059600041F481E090E0A0E0B0E089839A83AB83CA
:10597000BC83A091C921B091CA21B695A795B695CF
:10598000A795AD8BBE8BA093C921B093CA21E0919E
:10599000CB21F091CC21F695E795F695E795EF8B25
:1059A000F88FE093CB21F093CC212091CD21309141
:1059B000CE214091CF215091D0218091D121909141
:1059C000D221A091D321B091D421898B9A8BAB8B1A
:1059D000BC8B2090D5213090D6214090D72150907B
:1059E000D8218091D9219091DA21A091DB21B09129
:1059F000DC218D879E87AF87B88B8091DD219091C8
:105A0000DE21A091DF21B091E02189879A87AB87C1
:105A1000BC878091E1219091E221A091E321B09196
:105A2000E4218D839E83AF83B88791E090930C0629
:105A300080910C0680FD0CC09093BF218091C02105
:105A40008150823008F099C083E08093C0218CC0DF
:105A5000AD89BE895D01CC24DD24EF89F88D3F013D
:105A600088249924C601B50170D17B018C01C40141
:105A7000B30129893A894B895C8967D1E60EF71E03
:105A8000081F191F2E0C3F1C401E511EC201B101E0
:105A900029813A814B815C81C0D119012A01C6015B
:105AA000B5012D853E854F8558894FD17B018C01ED
:105AB000C401B30129853A854B855C8546D1E60E44
:105AC000F71E081F191F8D819E81AF81B8858E0D2D
:105AD0009F1DA01FB11F8D839E83AF83B887BC011C
